{
	"backend/Smart_Contract/contracts/Payment.sol": {
		"PaymentContract": {
			"abi": [
				{
					"inputs": [],
					"stateMutability": "nonpayable",
					"type": "constructor"
				},
				{
					"anonymous": false,
					"inputs": [
						{
							"indexed": true,
							"internalType": "address",
							"name": "from",
							"type": "address"
						},
						{
							"indexed": false,
							"internalType": "uint256",
							"name": "amount",
							"type": "uint256"
						}
					],
					"name": "PaymentReceived",
					"type": "event"
				},
				{
					"anonymous": false,
					"inputs": [
						{
							"indexed": true,
							"internalType": "address",
							"name": "user",
							"type": "address"
						},
						{
							"indexed": false,
							"internalType": "uint256",
							"name": "overtimeMinutes",
							"type": "uint256"
						},
						{
							"indexed": false,
							"internalType": "uint256",
							"name": "penaltyAmount",
							"type": "uint256"
						}
					],
					"name": "PenaltyCalculated",
					"type": "event"
				},
				{
					"inputs": [
						{
							"internalType": "uint256",
							"name": "allowedMinutes",
							"type": "uint256"
						},
						{
							"internalType": "uint256",
							"name": "baseFee",
							"type": "uint256"
						}
					],
					"name": "endParkingAndPay",
					"outputs": [],
					"stateMutability": "payable",
					"type": "function"
				},
				{
					"inputs": [],
					"name": "getBalance",
					"outputs": [
						{
							"internalType": "uint256",
							"name": "",
							"type": "uint256"
						}
					],
					"stateMutability": "view",
					"type": "function"
				},
				{
					"inputs": [],
					"name": "owner",
					"outputs": [
						{
							"internalType": "address",
							"name": "",
							"type": "address"
						}
					],
					"stateMutability": "view",
					"type": "function"
				},
				{
					"inputs": [],
					"name": "penaltyPerMinute",
					"outputs": [
						{
							"internalType": "uint256",
							"name": "",
							"type": "uint256"
						}
					],
					"stateMutability": "view",
					"type": "function"
				},
				{
					"inputs": [
						{
							"internalType": "address",
							"name": "",
							"type": "address"
						}
					],
					"name": "sessions",
					"outputs": [
						{
							"internalType": "uint256",
							"name": "startTime",
							"type": "uint256"
						},
						{
							"internalType": "bool",
							"name": "isActive",
							"type": "bool"
						}
					],
					"stateMutability": "view",
					"type": "function"
				},
				{
					"inputs": [
						{
							"internalType": "uint256",
							"name": "newPenalty",
							"type": "uint256"
						}
					],
					"name": "setPenaltyPerMinute",
					"outputs": [],
					"stateMutability": "nonpayable",
					"type": "function"
				},
				{
					"inputs": [],
					"name": "startParking",
					"outputs": [],
					"stateMutability": "nonpayable",
					"type": "function"
				},
				{
					"inputs": [],
					"name": "withdraw",
					"outputs": [],
					"stateMutability": "nonpayable",
					"type": "function"
				}
			],
			"devdoc": {
				"kind": "dev",
				"methods": {},
				"version": 1
			},
			"evm": {
				"assembly": "    /* \"backend/Smart_Contract/contracts/Payment.sol\":58:2440  contract PaymentContract {... */\n  mstore(0x40, 0x80)\n    /* \"backend/Smart_Contract/contracts/Payment.sol\":149:160  0.001 ether */\n  0x038d7ea4c68000\n    /* \"backend/Smart_Contract/contracts/Payment.sol\":115:160  uint256 public penaltyPerMinute = 0.001 ether */\n  0x01\n  sstore\n    /* \"backend/Smart_Contract/contracts/Payment.sol\":505:554  constructor() {... */\n  callvalue\n  dup1\n  iszero\n  tag_1\n  jumpi\n  revert(0x00, 0x00)\ntag_1:\n  pop\n    /* \"backend/Smart_Contract/contracts/Payment.sol\":537:547  msg.sender */\n  caller\n    /* \"backend/Smart_Contract/contracts/Payment.sol\":529:534  owner */\n  0x00\n  0x00\n    /* \"backend/Smart_Contract/contracts/Payment.sol\":529:547  owner = msg.sender */\n  0x0100\n  exp\n  dup2\n  sload\n  dup2\n  0xffffffffffffffffffffffffffffffffffffffff\n  mul\n  not\n  and\n  swap1\n  dup4\n  0xffffffffffffffffffffffffffffffffffffffff\n  and\n  mul\n  or\n  swap1\n  sstore\n  pop\n    /* \"backend/Smart_Contract/contracts/Payment.sol\":58:2440  contract PaymentContract {... */\n  dataSize(sub_0)\n  dup1\n  dataOffset(sub_0)\n  0x00\n  codecopy\n  0x00\n  return\nstop\n\nsub_0: assembly {\n        /* \"backend/Smart_Contract/contracts/Payment.sol\":58:2440  contract PaymentContract {... */\n      mstore(0x40, 0x80)\n      jumpi(tag_1, lt(calldatasize, 0x04))\n      shr(0xe0, calldataload(0x00))\n      dup1\n      0x7bf2181f\n      gt\n      tag_10\n      jumpi\n      dup1\n      0x7bf2181f\n      eq\n      tag_6\n      jumpi\n      dup1\n      0x8da5cb5b\n      eq\n      tag_7\n      jumpi\n      dup1\n      0x91e90d98\n      eq\n      tag_8\n      jumpi\n      dup1\n      0xf668c03c\n      eq\n      tag_9\n      jumpi\n      jump(tag_1)\n    tag_10:\n      dup1\n      0x12065fe0\n      eq\n      tag_2\n      jumpi\n      dup1\n      0x3ccfd60b\n      eq\n      tag_3\n      jumpi\n      dup1\n      0x431a1b97\n      eq\n      tag_4\n      jumpi\n      dup1\n      0x6d451f5f\n      eq\n      tag_5\n      jumpi\n    tag_1:\n      revert(0x00, 0x00)\n        /* \"backend/Smart_Contract/contracts/Payment.sol\":2139:2238  function getBalance() external view returns (uint256) {... */\n    tag_2:\n      callvalue\n      dup1\n      iszero\n      tag_11\n      jumpi\n      revert(0x00, 0x00)\n    tag_11:\n      pop\n      tag_12\n      tag_13\n      jump\t// in\n    tag_12:\n      mload(0x40)\n      tag_14\n      swap2\n      swap1\n      tag_15\n      jump\t// in\n    tag_14:\n      mload(0x40)\n      dup1\n      swap2\n      sub\n      swap1\n      return\n        /* \"backend/Smart_Contract/contracts/Payment.sol\":1948:2105  function withdraw() external {... */\n    tag_3:\n      callvalue\n      dup1\n      iszero\n      tag_16\n      jumpi\n      revert(0x00, 0x00)\n    tag_16:\n      pop\n      tag_17\n      tag_18\n      jump\t// in\n    tag_17:\n      stop\n        /* \"backend/Smart_Contract/contracts/Payment.sol\":283:333  mapping(address => ParkingSession) public sessions */\n    tag_4:\n      callvalue\n      dup1\n      iszero\n      tag_19\n      jumpi\n      revert(0x00, 0x00)\n    tag_19:\n      pop\n      tag_20\n      0x04\n      dup1\n      calldatasize\n      sub\n      dup2\n      add\n      swap1\n      tag_21\n      swap2\n      swap1\n      tag_22\n      jump\t// in\n    tag_21:\n      tag_23\n      jump\t// in\n    tag_20:\n      mload(0x40)\n      tag_24\n      swap3\n      swap2\n      swap1\n      tag_25\n      jump\t// in\n    tag_24:\n      mload(0x40)\n      dup1\n      swap2\n      sub\n      swap1\n      return\n        /* \"backend/Smart_Contract/contracts/Payment.sol\":589:782  function startParking() external {... */\n    tag_5:\n      callvalue\n      dup1\n      iszero\n      tag_26\n      jumpi\n      revert(0x00, 0x00)\n    tag_26:\n      pop\n      tag_27\n      tag_28\n      jump\t// in\n    tag_27:\n      stop\n        /* \"backend/Smart_Contract/contracts/Payment.sol\":115:160  uint256 public penaltyPerMinute = 0.001 ether */\n    tag_6:\n      callvalue\n      dup1\n      iszero\n      tag_29\n      jumpi\n      revert(0x00, 0x00)\n    tag_29:\n      pop\n      tag_30\n      tag_31\n      jump\t// in\n    tag_30:\n      mload(0x40)\n      tag_32\n      swap2\n      swap1\n      tag_15\n      jump\t// in\n    tag_32:\n      mload(0x40)\n      dup1\n      swap2\n      sub\n      swap1\n      return\n        /* \"backend/Smart_Contract/contracts/Payment.sol\":89:109  address public owner */\n    tag_7:\n      callvalue\n      dup1\n      iszero\n      tag_33\n      jumpi\n      revert(0x00, 0x00)\n    tag_33:\n      pop\n      tag_34\n      tag_35\n      jump\t// in\n    tag_34:\n      mload(0x40)\n      tag_36\n      swap2\n      swap1\n      tag_37\n      jump\t// in\n    tag_36:\n      mload(0x40)\n      dup1\n      swap2\n      sub\n      swap1\n      return\n        /* \"backend/Smart_Contract/contracts/Payment.sol\":835:1907  function endParkingAndPay(uint256 allowedMinutes, uint256 baseFee) external payable {... */\n    tag_8:\n      tag_38\n      0x04\n      dup1\n      calldatasize\n      sub\n      dup2\n      add\n      swap1\n      tag_39\n      swap2\n      swap1\n      tag_40\n      jump\t// in\n    tag_39:\n      tag_41\n      jump\t// in\n    tag_38:\n      stop\n        /* \"backend/Smart_Contract/contracts/Payment.sol\":2274:2438  function setPenaltyPerMinute(uint256 newPenalty) external {... */\n    tag_9:\n      callvalue\n      dup1\n      iszero\n      tag_42\n      jumpi\n      revert(0x00, 0x00)\n    tag_42:\n      pop\n      tag_43\n      0x04\n      dup1\n      calldatasize\n      sub\n      dup2\n      add\n      swap1\n      tag_44\n      swap2\n      swap1\n      tag_45\n      jump\t// in\n    tag_44:\n      tag_46\n      jump\t// in\n    tag_43:\n      stop\n        /* \"backend/Smart_Contract/contracts/Payment.sol\":2139:2238  function getBalance() external view returns (uint256) {... */\n    tag_13:\n        /* \"backend/Smart_Contract/contracts/Payment.sol\":2184:2191  uint256 */\n      0x00\n        /* \"backend/Smart_Contract/contracts/Payment.sol\":2210:2231  address(this).balance */\n      selfbalance\n        /* \"backend/Smart_Contract/contracts/Payment.sol\":2203:2231  return address(this).balance */\n      swap1\n      pop\n        /* \"backend/Smart_Contract/contracts/Payment.sol\":2139:2238  function getBalance() external view returns (uint256) {... */\n      swap1\n      jump\t// out\n        /* \"backend/Smart_Contract/contracts/Payment.sol\":1948:2105  function withdraw() external {... */\n    tag_18:\n        /* \"backend/Smart_Contract/contracts/Payment.sol\":2009:2014  owner */\n      0x00\n      0x00\n      swap1\n      sload\n      swap1\n      0x0100\n      exp\n      swap1\n      div\n      0xffffffffffffffffffffffffffffffffffffffff\n      and\n        /* \"backend/Smart_Contract/contracts/Payment.sol\":1995:2014  msg.sender == owner */\n      0xffffffffffffffffffffffffffffffffffffffff\n      and\n        /* \"backend/Smart_Contract/contracts/Payment.sol\":1995:2005  msg.sender */\n      caller\n        /* \"backend/Smart_Contract/contracts/Payment.sol\":1995:2014  msg.sender == owner */\n      0xffffffffffffffffffffffffffffffffffffffff\n      and\n      eq\n        /* \"backend/Smart_Contract/contracts/Payment.sol\":1987:2042  require(msg.sender == owner, \"Only owner can withdraw\") */\n      tag_49\n      jumpi\n      mload(0x40)\n      0x08c379a000000000000000000000000000000000000000000000000000000000\n      dup2\n      mstore\n      0x04\n      add\n      tag_50\n      swap1\n      tag_51\n      jump\t// in\n    tag_50:\n      mload(0x40)\n      dup1\n      swap2\n      sub\n      swap1\n      revert\n    tag_49:\n        /* \"backend/Smart_Contract/contracts/Payment.sol\":2060:2065  owner */\n      0x00\n      0x00\n      swap1\n      sload\n      swap1\n      0x0100\n      exp\n      swap1\n      div\n      0xffffffffffffffffffffffffffffffffffffffff\n      and\n        /* \"backend/Smart_Contract/contracts/Payment.sol\":2052:2075  payable(owner).transfer */\n      0xffffffffffffffffffffffffffffffffffffffff\n      and\n        /* \"backend/Smart_Contract/contracts/Payment.sol\":2052:2098  payable(owner).transfer(address(this).balance) */\n      0x08fc\n        /* \"backend/Smart_Contract/contracts/Payment.sol\":2076:2097  address(this).balance */\n      selfbalance\n        /* \"backend/Smart_Contract/contracts/Payment.sol\":2052:2098  payable(owner).transfer(address(this).balance) */\n      swap1\n      dup2\n      iszero\n      mul\n      swap1\n      mload(0x40)\n      0x00\n      mload(0x40)\n      dup1\n      dup4\n      sub\n      dup2\n      dup6\n      dup9\n      dup9\n      call\n      swap4\n      pop\n      pop\n      pop\n      pop\n      iszero\n      dup1\n      iszero\n      tag_53\n      jumpi\n      returndatacopy(0x00, 0x00, returndatasize)\n      revert(0x00, returndatasize)\n    tag_53:\n      pop\n        /* \"backend/Smart_Contract/contracts/Payment.sol\":1948:2105  function withdraw() external {... */\n      jump\t// out\n        /* \"backend/Smart_Contract/contracts/Payment.sol\":283:333  mapping(address => ParkingSession) public sessions */\n    tag_23:\n      mstore(0x20, 0x02)\n      dup1\n      0x00\n      mstore\n      keccak256(0x00, 0x40)\n      0x00\n      swap2\n      pop\n      swap1\n      pop\n      dup1\n      0x00\n      add\n      sload\n      swap1\n      dup1\n      0x01\n      add\n      0x00\n      swap1\n      sload\n      swap1\n      0x0100\n      exp\n      swap1\n      div\n      0xff\n      and\n      swap1\n      pop\n      dup3\n      jump\t// out\n        /* \"backend/Smart_Contract/contracts/Payment.sol\":589:782  function startParking() external {... */\n    tag_28:\n        /* \"backend/Smart_Contract/contracts/Payment.sol\":641:649  sessions */\n      0x02\n        /* \"backend/Smart_Contract/contracts/Payment.sol\":641:661  sessions[msg.sender] */\n      0x00\n        /* \"backend/Smart_Contract/contracts/Payment.sol\":650:660  msg.sender */\n      caller\n        /* \"backend/Smart_Contract/contracts/Payment.sol\":641:661  sessions[msg.sender] */\n      0xffffffffffffffffffffffffffffffffffffffff\n      and\n      0xffffffffffffffffffffffffffffffffffffffff\n      and\n      dup2\n      mstore\n      0x20\n      add\n      swap1\n      dup2\n      mstore\n      0x20\n      add\n      0x00\n      keccak256\n        /* \"backend/Smart_Contract/contracts/Payment.sol\":641:670  sessions[msg.sender].isActive */\n      0x01\n      add\n      0x00\n      swap1\n      sload\n      swap1\n      0x0100\n      exp\n      swap1\n      div\n      0xff\n      and\n        /* \"backend/Smart_Contract/contracts/Payment.sol\":640:670  !sessions[msg.sender].isActive */\n      iszero\n        /* \"backend/Smart_Contract/contracts/Payment.sol\":632:705  require(!sessions[msg.sender].isActive, \"Parking session already active\") */\n      tag_55\n      jumpi\n      mload(0x40)\n      0x08c379a000000000000000000000000000000000000000000000000000000000\n      dup2\n      mstore\n      0x04\n      add\n      tag_56\n      swap1\n      tag_57\n      jump\t// in\n    tag_56:\n      mload(0x40)\n      dup1\n      swap2\n      sub\n      swap1\n      revert\n    tag_55:\n        /* \"backend/Smart_Contract/contracts/Payment.sol\":738:775  ParkingSession(block.timestamp, true) */\n      mload(0x40)\n      dup1\n      0x40\n      add\n      0x40\n      mstore\n      dup1\n        /* \"backend/Smart_Contract/contracts/Payment.sol\":753:768  block.timestamp */\n      timestamp\n        /* \"backend/Smart_Contract/contracts/Payment.sol\":738:775  ParkingSession(block.timestamp, true) */\n      dup2\n      mstore\n      0x20\n      add\n        /* \"backend/Smart_Contract/contracts/Payment.sol\":770:774  true */\n      0x01\n        /* \"backend/Smart_Contract/contracts/Payment.sol\":738:775  ParkingSession(block.timestamp, true) */\n      iszero\n      iszero\n      dup2\n      mstore\n      pop\n        /* \"backend/Smart_Contract/contracts/Payment.sol\":715:723  sessions */\n      0x02\n        /* \"backend/Smart_Contract/contracts/Payment.sol\":715:735  sessions[msg.sender] */\n      0x00\n        /* \"backend/Smart_Contract/contracts/Payment.sol\":724:734  msg.sender */\n      caller\n        /* \"backend/Smart_Contract/contracts/Payment.sol\":715:735  sessions[msg.sender] */\n      0xffffffffffffffffffffffffffffffffffffffff\n      and\n      0xffffffffffffffffffffffffffffffffffffffff\n      and\n      dup2\n      mstore\n      0x20\n      add\n      swap1\n      dup2\n      mstore\n      0x20\n      add\n      0x00\n      keccak256\n        /* \"backend/Smart_Contract/contracts/Payment.sol\":715:775  sessions[msg.sender] = ParkingSession(block.timestamp, true) */\n      0x00\n      dup3\n      add\n      mload\n      dup2\n      0x00\n      add\n      sstore\n      0x20\n      dup3\n      add\n      mload\n      dup2\n      0x01\n      add\n      exp(0x0100, 0x00)\n      dup2\n      sload\n      dup2\n      0xff\n      mul\n      not\n      and\n      swap1\n      dup4\n      iszero\n      iszero\n      mul\n      or\n      swap1\n      sstore\n      pop\n      swap1\n      pop\n      pop\n        /* \"backend/Smart_Contract/contracts/Payment.sol\":589:782  function startParking() external {... */\n      jump\t// out\n        /* \"backend/Smart_Contract/contracts/Payment.sol\":115:160  uint256 public penaltyPerMinute = 0.001 ether */\n    tag_31:\n      sload(0x01)\n      dup2\n      jump\t// out\n        /* \"backend/Smart_Contract/contracts/Payment.sol\":89:109  address public owner */\n    tag_35:\n      0x00\n      0x00\n      swap1\n      sload\n      swap1\n      0x0100\n      exp\n      swap1\n      div\n      0xffffffffffffffffffffffffffffffffffffffff\n      and\n      dup2\n      jump\t// out\n        /* \"backend/Smart_Contract/contracts/Payment.sol\":835:1907  function endParkingAndPay(uint256 allowedMinutes, uint256 baseFee) external payable {... */\n    tag_41:\n        /* \"backend/Smart_Contract/contracts/Payment.sol\":929:959  ParkingSession storage session */\n      0x00\n        /* \"backend/Smart_Contract/contracts/Payment.sol\":962:970  sessions */\n      0x02\n        /* \"backend/Smart_Contract/contracts/Payment.sol\":962:982  sessions[msg.sender] */\n      0x00\n        /* \"backend/Smart_Contract/contracts/Payment.sol\":971:981  msg.sender */\n      caller\n        /* \"backend/Smart_Contract/contracts/Payment.sol\":962:982  sessions[msg.sender] */\n      0xffffffffffffffffffffffffffffffffffffffff\n      and\n      0xffffffffffffffffffffffffffffffffffffffff\n      and\n      dup2\n      mstore\n      0x20\n      add\n      swap1\n      dup2\n      mstore\n      0x20\n      add\n      0x00\n      keccak256\n        /* \"backend/Smart_Contract/contracts/Payment.sol\":929:982  ParkingSession storage session = sessions[msg.sender] */\n      swap1\n      pop\n        /* \"backend/Smart_Contract/contracts/Payment.sol\":1000:1007  session */\n      dup1\n        /* \"backend/Smart_Contract/contracts/Payment.sol\":1000:1016  session.isActive */\n      0x01\n      add\n      0x00\n      swap1\n      sload\n      swap1\n      0x0100\n      exp\n      swap1\n      div\n      0xff\n      and\n        /* \"backend/Smart_Contract/contracts/Payment.sol\":992:1046  require(session.isActive, \"No active parking session\") */\n      tag_59\n      jumpi\n      mload(0x40)\n      0x08c379a000000000000000000000000000000000000000000000000000000000\n      dup2\n      mstore\n      0x04\n      add\n      tag_60\n      swap1\n      tag_61\n      jump\t// in\n    tag_60:\n      mload(0x40)\n      dup1\n      swap2\n      sub\n      swap1\n      revert\n    tag_59:\n        /* \"backend/Smart_Contract/contracts/Payment.sol\":1076:1081  false */\n      0x00\n        /* \"backend/Smart_Contract/contracts/Payment.sol\":1057:1064  session */\n      dup2\n        /* \"backend/Smart_Contract/contracts/Payment.sol\":1057:1073  session.isActive */\n      0x01\n      add\n      0x00\n        /* \"backend/Smart_Contract/contracts/Payment.sol\":1057:1081  session.isActive = false */\n      0x0100\n      exp\n      dup2\n      sload\n      dup2\n      0xff\n      mul\n      not\n      and\n      swap1\n      dup4\n      iszero\n      iszero\n      mul\n      or\n      swap1\n      sstore\n      pop\n        /* \"backend/Smart_Contract/contracts/Payment.sol\":1091:1106  uint256 endTime */\n      0x00\n        /* \"backend/Smart_Contract/contracts/Payment.sol\":1109:1124  block.timestamp */\n      timestamp\n        /* \"backend/Smart_Contract/contracts/Payment.sol\":1091:1124  uint256 endTime = block.timestamp */\n      swap1\n      pop\n        /* \"backend/Smart_Contract/contracts/Payment.sol\":1179:1197  uint256 parkedTime */\n      0x00\n        /* \"backend/Smart_Contract/contracts/Payment.sol\":1232:1234  60 */\n      0x3c\n        /* \"backend/Smart_Contract/contracts/Payment.sol\":1211:1218  session */\n      dup4\n        /* \"backend/Smart_Contract/contracts/Payment.sol\":1211:1228  session.startTime */\n      0x00\n      add\n      sload\n        /* \"backend/Smart_Contract/contracts/Payment.sol\":1201:1208  endTime */\n      dup4\n        /* \"backend/Smart_Contract/contracts/Payment.sol\":1201:1228  endTime - session.startTime */\n      tag_62\n      swap2\n      swap1\n      tag_63\n      jump\t// in\n    tag_62:\n        /* \"backend/Smart_Contract/contracts/Payment.sol\":1200:1234  (endTime - session.startTime) / 60 */\n      tag_64\n      swap2\n      swap1\n      tag_65\n      jump\t// in\n    tag_64:\n        /* \"backend/Smart_Contract/contracts/Payment.sol\":1179:1234  uint256 parkedTime = (endTime - session.startTime) / 60 */\n      swap1\n      pop\n        /* \"backend/Smart_Contract/contracts/Payment.sol\":1276:1292  uint256 overtime */\n      0x00\n        /* \"backend/Smart_Contract/contracts/Payment.sol\":1295:1296  0 */\n      0x00\n        /* \"backend/Smart_Contract/contracts/Payment.sol\":1276:1296  uint256 overtime = 0 */\n      swap1\n      pop\n        /* \"backend/Smart_Contract/contracts/Payment.sol\":1323:1337  allowedMinutes */\n      dup6\n        /* \"backend/Smart_Contract/contracts/Payment.sol\":1310:1320  parkedTime */\n      dup3\n        /* \"backend/Smart_Contract/contracts/Payment.sol\":1310:1337  parkedTime > allowedMinutes */\n      gt\n        /* \"backend/Smart_Contract/contracts/Payment.sol\":1306:1402  if (parkedTime > allowedMinutes) {... */\n      iszero\n      tag_66\n      jumpi\n        /* \"backend/Smart_Contract/contracts/Payment.sol\":1377:1391  allowedMinutes */\n      dup6\n        /* \"backend/Smart_Contract/contracts/Payment.sol\":1364:1374  parkedTime */\n      dup3\n        /* \"backend/Smart_Contract/contracts/Payment.sol\":1364:1391  parkedTime - allowedMinutes */\n      tag_67\n      swap2\n      swap1\n      tag_63\n      jump\t// in\n    tag_67:\n        /* \"backend/Smart_Contract/contracts/Payment.sol\":1353:1391  overtime = parkedTime - allowedMinutes */\n      swap1\n      pop\n        /* \"backend/Smart_Contract/contracts/Payment.sol\":1306:1402  if (parkedTime > allowedMinutes) {... */\n    tag_66:\n        /* \"backend/Smart_Contract/contracts/Payment.sol\":1412:1427  uint256 penalty */\n      0x00\n        /* \"backend/Smart_Contract/contracts/Payment.sol\":1441:1457  penaltyPerMinute */\n      sload(0x01)\n        /* \"backend/Smart_Contract/contracts/Payment.sol\":1430:1438  overtime */\n      dup3\n        /* \"backend/Smart_Contract/contracts/Payment.sol\":1430:1457  overtime * penaltyPerMinute */\n      tag_68\n      swap2\n      swap1\n      tag_69\n      jump\t// in\n    tag_68:\n        /* \"backend/Smart_Contract/contracts/Payment.sol\":1412:1457  uint256 penalty = overtime * penaltyPerMinute */\n      swap1\n      pop\n        /* \"backend/Smart_Contract/contracts/Payment.sol\":1467:1486  uint256 totalAmount */\n      0x00\n        /* \"backend/Smart_Contract/contracts/Payment.sol\":1499:1506  penalty */\n      dup2\n        /* \"backend/Smart_Contract/contracts/Payment.sol\":1489:1496  baseFee */\n      dup8\n        /* \"backend/Smart_Contract/contracts/Payment.sol\":1489:1506  baseFee + penalty */\n      tag_70\n      swap2\n      swap1\n      tag_71\n      jump\t// in\n    tag_70:\n        /* \"backend/Smart_Contract/contracts/Payment.sol\":1467:1506  uint256 totalAmount = baseFee + penalty */\n      swap1\n      pop\n        /* \"backend/Smart_Contract/contracts/Payment.sol\":1538:1549  totalAmount */\n      dup1\n        /* \"backend/Smart_Contract/contracts/Payment.sol\":1525:1534  msg.value */\n      callvalue\n        /* \"backend/Smart_Contract/contracts/Payment.sol\":1525:1549  msg.value >= totalAmount */\n      lt\n      iszero\n        /* \"backend/Smart_Contract/contracts/Payment.sol\":1517:1574  require(msg.value >= totalAmount, \"Insufficient payment\") */\n      tag_72\n      jumpi\n      mload(0x40)\n      0x08c379a000000000000000000000000000000000000000000000000000000000\n      dup2\n      mstore\n      0x04\n      add\n      tag_73\n      swap1\n      tag_74\n      jump\t// in\n    tag_73:\n      mload(0x40)\n      dup1\n      swap2\n      sub\n      swap1\n      revert\n    tag_72:\n        /* \"backend/Smart_Contract/contracts/Payment.sol\":1606:1616  msg.sender */\n      caller\n        /* \"backend/Smart_Contract/contracts/Payment.sol\":1590:1628  PaymentReceived(msg.sender, msg.value) */\n      0xffffffffffffffffffffffffffffffffffffffff\n      and\n      0x6ef95f06320e7a25a04a175ca677b7052bdd97131872c2192525a629f51be770\n        /* \"backend/Smart_Contract/contracts/Payment.sol\":1618:1627  msg.value */\n      callvalue\n        /* \"backend/Smart_Contract/contracts/Payment.sol\":1590:1628  PaymentReceived(msg.sender, msg.value) */\n      mload(0x40)\n      tag_75\n      swap2\n      swap1\n      tag_15\n      jump\t// in\n    tag_75:\n      mload(0x40)\n      dup1\n      swap2\n      sub\n      swap1\n      log2\n        /* \"backend/Smart_Contract/contracts/Payment.sol\":1654:1655  0 */\n      0x00\n        /* \"backend/Smart_Contract/contracts/Payment.sol\":1643:1651  overtime */\n      dup4\n        /* \"backend/Smart_Contract/contracts/Payment.sol\":1643:1655  overtime > 0 */\n      gt\n        /* \"backend/Smart_Contract/contracts/Payment.sol\":1639:1735  if (overtime > 0) {... */\n      iszero\n      tag_76\n      jumpi\n        /* \"backend/Smart_Contract/contracts/Payment.sol\":1694:1704  msg.sender */\n      caller\n        /* \"backend/Smart_Contract/contracts/Payment.sol\":1676:1724  PenaltyCalculated(msg.sender, overtime, penalty) */\n      0xffffffffffffffffffffffffffffffffffffffff\n      and\n      0x1806cd35982158c85fac1c8c39b4038347da8e2506d6e101273d40fe47f4c917\n        /* \"backend/Smart_Contract/contracts/Payment.sol\":1706:1714  overtime */\n      dup5\n        /* \"backend/Smart_Contract/contracts/Payment.sol\":1716:1723  penalty */\n      dup5\n        /* \"backend/Smart_Contract/contracts/Payment.sol\":1676:1724  PenaltyCalculated(msg.sender, overtime, penalty) */\n      mload(0x40)\n      tag_77\n      swap3\n      swap2\n      swap1\n      tag_78\n      jump\t// in\n    tag_77:\n      mload(0x40)\n      dup1\n      swap2\n      sub\n      swap1\n      log2\n        /* \"backend/Smart_Contract/contracts/Payment.sol\":1639:1735  if (overtime > 0) {... */\n    tag_76:\n        /* \"backend/Smart_Contract/contracts/Payment.sol\":1810:1821  totalAmount */\n      dup1\n        /* \"backend/Smart_Contract/contracts/Payment.sol\":1798:1807  msg.value */\n      callvalue\n        /* \"backend/Smart_Contract/contracts/Payment.sol\":1798:1821  msg.value > totalAmount */\n      gt\n        /* \"backend/Smart_Contract/contracts/Payment.sol\":1794:1901  if (msg.value > totalAmount) {... */\n      iszero\n      tag_79\n      jumpi\n        /* \"backend/Smart_Contract/contracts/Payment.sol\":1845:1855  msg.sender */\n      caller\n        /* \"backend/Smart_Contract/contracts/Payment.sol\":1837:1865  payable(msg.sender).transfer */\n      0xffffffffffffffffffffffffffffffffffffffff\n      and\n        /* \"backend/Smart_Contract/contracts/Payment.sol\":1837:1890  payable(msg.sender).transfer(msg.value - totalAmount) */\n      0x08fc\n        /* \"backend/Smart_Contract/contracts/Payment.sol\":1878:1889  totalAmount */\n      dup3\n        /* \"backend/Smart_Contract/contracts/Payment.sol\":1866:1875  msg.value */\n      callvalue\n        /* \"backend/Smart_Contract/contracts/Payment.sol\":1866:1889  msg.value - totalAmount */\n      tag_80\n      swap2\n      swap1\n      tag_63\n      jump\t// in\n    tag_80:\n        /* \"backend/Smart_Contract/contracts/Payment.sol\":1837:1890  payable(msg.sender).transfer(msg.value - totalAmount) */\n      swap1\n      dup2\n      iszero\n      mul\n      swap1\n      mload(0x40)\n      0x00\n      mload(0x40)\n      dup1\n      dup4\n      sub\n      dup2\n      dup6\n      dup9\n      dup9\n      call\n      swap4\n      pop\n      pop\n      pop\n      pop\n      iszero\n      dup1\n      iszero\n      tag_82\n      jumpi\n      returndatacopy(0x00, 0x00, returndatasize)\n      revert(0x00, returndatasize)\n    tag_82:\n      pop\n        /* \"backend/Smart_Contract/contracts/Payment.sol\":1794:1901  if (msg.value > totalAmount) {... */\n    tag_79:\n        /* \"backend/Smart_Contract/contracts/Payment.sol\":919:1907  {... */\n      pop\n      pop\n      pop\n      pop\n      pop\n      pop\n        /* \"backend/Smart_Contract/contracts/Payment.sol\":835:1907  function endParkingAndPay(uint256 allowedMinutes, uint256 baseFee) external payable {... */\n      pop\n      pop\n      jump\t// out\n        /* \"backend/Smart_Contract/contracts/Payment.sol\":2274:2438  function setPenaltyPerMinute(uint256 newPenalty) external {... */\n    tag_46:\n        /* \"backend/Smart_Contract/contracts/Payment.sol\":2364:2369  owner */\n      0x00\n      0x00\n      swap1\n      sload\n      swap1\n      0x0100\n      exp\n      swap1\n      div\n      0xffffffffffffffffffffffffffffffffffffffff\n      and\n        /* \"backend/Smart_Contract/contracts/Payment.sol\":2350:2369  msg.sender == owner */\n      0xffffffffffffffffffffffffffffffffffffffff\n      and\n        /* \"backend/Smart_Contract/contracts/Payment.sol\":2350:2360  msg.sender */\n      caller\n        /* \"backend/Smart_Contract/contracts/Payment.sol\":2350:2369  msg.sender == owner */\n      0xffffffffffffffffffffffffffffffffffffffff\n      and\n      eq\n        /* \"backend/Smart_Contract/contracts/Payment.sol\":2342:2392  require(msg.sender == owner, \"Only owner can set\") */\n      tag_84\n      jumpi\n      mload(0x40)\n      0x08c379a000000000000000000000000000000000000000000000000000000000\n      dup2\n      mstore\n      0x04\n      add\n      tag_85\n      swap1\n      tag_86\n      jump\t// in\n    tag_85:\n      mload(0x40)\n      dup1\n      swap2\n      sub\n      swap1\n      revert\n    tag_84:\n        /* \"backend/Smart_Contract/contracts/Payment.sol\":2421:2431  newPenalty */\n      dup1\n        /* \"backend/Smart_Contract/contracts/Payment.sol\":2402:2418  penaltyPerMinute */\n      0x01\n        /* \"backend/Smart_Contract/contracts/Payment.sol\":2402:2431  penaltyPerMinute = newPenalty */\n      dup2\n      swap1\n      sstore\n      pop\n        /* \"backend/Smart_Contract/contracts/Payment.sol\":2274:2438  function setPenaltyPerMinute(uint256 newPenalty) external {... */\n      pop\n      jump\t// out\n        /* \"#utility.yul\":7:84   */\n    tag_87:\n        /* \"#utility.yul\":44:51   */\n      0x00\n        /* \"#utility.yul\":73:78   */\n      dup2\n        /* \"#utility.yul\":62:78   */\n      swap1\n      pop\n        /* \"#utility.yul\":7:84   */\n      swap2\n      swap1\n      pop\n      jump\t// out\n        /* \"#utility.yul\":90:208   */\n    tag_88:\n        /* \"#utility.yul\":177:201   */\n      tag_117\n        /* \"#utility.yul\":195:200   */\n      dup2\n        /* \"#utility.yul\":177:201   */\n      tag_87\n      jump\t// in\n    tag_117:\n        /* \"#utility.yul\":172:175   */\n      dup3\n        /* \"#utility.yul\":165:202   */\n      mstore\n        /* \"#utility.yul\":90:208   */\n      pop\n      pop\n      jump\t// out\n        /* \"#utility.yul\":214:436   */\n    tag_15:\n        /* \"#utility.yul\":307:311   */\n      0x00\n        /* \"#utility.yul\":345:347   */\n      0x20\n        /* \"#utility.yul\":334:343   */\n      dup3\n        /* \"#utility.yul\":330:348   */\n      add\n        /* \"#utility.yul\":322:348   */\n      swap1\n      pop\n        /* \"#utility.yul\":358:429   */\n      tag_119\n        /* \"#utility.yul\":426:427   */\n      0x00\n        /* \"#utility.yul\":415:424   */\n      dup4\n        /* \"#utility.yul\":411:428   */\n      add\n        /* \"#utility.yul\":402:408   */\n      dup5\n        /* \"#utility.yul\":358:429   */\n      tag_88\n      jump\t// in\n    tag_119:\n        /* \"#utility.yul\":214:436   */\n      swap3\n      swap2\n      pop\n      pop\n      jump\t// out\n        /* \"#utility.yul\":523:640   */\n    tag_90:\n        /* \"#utility.yul\":632:633   */\n      0x00\n        /* \"#utility.yul\":629:630   */\n      0x00\n        /* \"#utility.yul\":622:634   */\n      revert\n        /* \"#utility.yul\":769:895   */\n    tag_92:\n        /* \"#utility.yul\":806:813   */\n      0x00\n        /* \"#utility.yul\":846:888   */\n      0xffffffffffffffffffffffffffffffffffffffff\n        /* \"#utility.yul\":839:844   */\n      dup3\n        /* \"#utility.yul\":835:889   */\n      and\n        /* \"#utility.yul\":824:889   */\n      swap1\n      pop\n        /* \"#utility.yul\":769:895   */\n      swap2\n      swap1\n      pop\n      jump\t// out\n        /* \"#utility.yul\":901:997   */\n    tag_93:\n        /* \"#utility.yul\":938:945   */\n      0x00\n        /* \"#utility.yul\":967:991   */\n      tag_125\n        /* \"#utility.yul\":985:990   */\n      dup3\n        /* \"#utility.yul\":967:991   */\n      tag_92\n      jump\t// in\n    tag_125:\n        /* \"#utility.yul\":956:991   */\n      swap1\n      pop\n        /* \"#utility.yul\":901:997   */\n      swap2\n      swap1\n      pop\n      jump\t// out\n        /* \"#utility.yul\":1003:1125   */\n    tag_94:\n        /* \"#utility.yul\":1076:1100   */\n      tag_127\n        /* \"#utility.yul\":1094:1099   */\n      dup2\n        /* \"#utility.yul\":1076:1100   */\n      tag_93\n      jump\t// in\n    tag_127:\n        /* \"#utility.yul\":1069:1074   */\n      dup2\n        /* \"#utility.yul\":1066:1101   */\n      eq\n        /* \"#utility.yul\":1056:1119   */\n      tag_128\n      jumpi\n        /* \"#utility.yul\":1115:1116   */\n      0x00\n        /* \"#utility.yul\":1112:1113   */\n      0x00\n        /* \"#utility.yul\":1105:1117   */\n      revert\n        /* \"#utility.yul\":1056:1119   */\n    tag_128:\n        /* \"#utility.yul\":1003:1125   */\n      pop\n      jump\t// out\n        /* \"#utility.yul\":1131:1270   */\n    tag_95:\n        /* \"#utility.yul\":1177:1182   */\n      0x00\n        /* \"#utility.yul\":1215:1221   */\n      dup2\n        /* \"#utility.yul\":1202:1222   */\n      calldataload\n        /* \"#utility.yul\":1193:1222   */\n      swap1\n      pop\n        /* \"#utility.yul\":1231:1264   */\n      tag_130\n        /* \"#utility.yul\":1258:1263   */\n      dup2\n        /* \"#utility.yul\":1231:1264   */\n      tag_94\n      jump\t// in\n    tag_130:\n        /* \"#utility.yul\":1131:1270   */\n      swap3\n      swap2\n      pop\n      pop\n      jump\t// out\n        /* \"#utility.yul\":1276:1605   */\n    tag_22:\n        /* \"#utility.yul\":1335:1341   */\n      0x00\n        /* \"#utility.yul\":1384:1386   */\n      0x20\n        /* \"#utility.yul\":1372:1381   */\n      dup3\n        /* \"#utility.yul\":1363:1370   */\n      dup5\n        /* \"#utility.yul\":1359:1382   */\n      sub\n        /* \"#utility.yul\":1355:1387   */\n      slt\n        /* \"#utility.yul\":1352:1471   */\n      iszero\n      tag_132\n      jumpi\n        /* \"#utility.yul\":1390:1469   */\n      tag_133\n      tag_90\n      jump\t// in\n    tag_133:\n        /* \"#utility.yul\":1352:1471   */\n    tag_132:\n        /* \"#utility.yul\":1510:1511   */\n      0x00\n        /* \"#utility.yul\":1535:1588   */\n      tag_134\n        /* \"#utility.yul\":1580:1587   */\n      dup5\n        /* \"#utility.yul\":1571:1577   */\n      dup3\n        /* \"#utility.yul\":1560:1569   */\n      dup6\n        /* \"#utility.yul\":1556:1578   */\n      add\n        /* \"#utility.yul\":1535:1588   */\n      tag_95\n      jump\t// in\n    tag_134:\n        /* \"#utility.yul\":1525:1588   */\n      swap2\n      pop\n        /* \"#utility.yul\":1481:1598   */\n      pop\n        /* \"#utility.yul\":1276:1605   */\n      swap3\n      swap2\n      pop\n      pop\n      jump\t// out\n        /* \"#utility.yul\":1611:1701   */\n    tag_96:\n        /* \"#utility.yul\":1645:1652   */\n      0x00\n        /* \"#utility.yul\":1688:1693   */\n      dup2\n        /* \"#utility.yul\":1681:1694   */\n      iszero\n        /* \"#utility.yul\":1674:1695   */\n      iszero\n        /* \"#utility.yul\":1663:1695   */\n      swap1\n      pop\n        /* \"#utility.yul\":1611:1701   */\n      swap2\n      swap1\n      pop\n      jump\t// out\n        /* \"#utility.yul\":1707:1816   */\n    tag_97:\n        /* \"#utility.yul\":1788:1809   */\n      tag_137\n        /* \"#utility.yul\":1803:1808   */\n      dup2\n        /* \"#utility.yul\":1788:1809   */\n      tag_96\n      jump\t// in\n    tag_137:\n        /* \"#utility.yul\":1783:1786   */\n      dup3\n        /* \"#utility.yul\":1776:1810   */\n      mstore\n        /* \"#utility.yul\":1707:1816   */\n      pop\n      pop\n      jump\t// out\n        /* \"#utility.yul\":1822:2142   */\n    tag_25:\n        /* \"#utility.yul\":1937:1941   */\n      0x00\n        /* \"#utility.yul\":1975:1977   */\n      0x40\n        /* \"#utility.yul\":1964:1973   */\n      dup3\n        /* \"#utility.yul\":1960:1978   */\n      add\n        /* \"#utility.yul\":1952:1978   */\n      swap1\n      pop\n        /* \"#utility.yul\":1988:2059   */\n      tag_139\n        /* \"#utility.yul\":2056:2057   */\n      0x00\n        /* \"#utility.yul\":2045:2054   */\n      dup4\n        /* \"#utility.yul\":2041:2058   */\n      add\n        /* \"#utility.yul\":2032:2038   */\n      dup6\n        /* \"#utility.yul\":1988:2059   */\n      tag_88\n      jump\t// in\n    tag_139:\n        /* \"#utility.yul\":2069:2135   */\n      tag_140\n        /* \"#utility.yul\":2131:2133   */\n      0x20\n        /* \"#utility.yul\":2120:2129   */\n      dup4\n        /* \"#utility.yul\":2116:2134   */\n      add\n        /* \"#utility.yul\":2107:2113   */\n      dup5\n        /* \"#utility.yul\":2069:2135   */\n      tag_97\n      jump\t// in\n    tag_140:\n        /* \"#utility.yul\":1822:2142   */\n      swap4\n      swap3\n      pop\n      pop\n      pop\n      jump\t// out\n        /* \"#utility.yul\":2148:2266   */\n    tag_98:\n        /* \"#utility.yul\":2235:2259   */\n      tag_142\n        /* \"#utility.yul\":2253:2258   */\n      dup2\n        /* \"#utility.yul\":2235:2259   */\n      tag_93\n      jump\t// in\n    tag_142:\n        /* \"#utility.yul\":2230:2233   */\n      dup3\n        /* \"#utility.yul\":2223:2260   */\n      mstore\n        /* \"#utility.yul\":2148:2266   */\n      pop\n      pop\n      jump\t// out\n        /* \"#utility.yul\":2272:2494   */\n    tag_37:\n        /* \"#utility.yul\":2365:2369   */\n      0x00\n        /* \"#utility.yul\":2403:2405   */\n      0x20\n        /* \"#utility.yul\":2392:2401   */\n      dup3\n        /* \"#utility.yul\":2388:2406   */\n      add\n        /* \"#utility.yul\":2380:2406   */\n      swap1\n      pop\n        /* \"#utility.yul\":2416:2487   */\n      tag_144\n        /* \"#utility.yul\":2484:2485   */\n      0x00\n        /* \"#utility.yul\":2473:2482   */\n      dup4\n        /* \"#utility.yul\":2469:2486   */\n      add\n        /* \"#utility.yul\":2460:2466   */\n      dup5\n        /* \"#utility.yul\":2416:2487   */\n      tag_98\n      jump\t// in\n    tag_144:\n        /* \"#utility.yul\":2272:2494   */\n      swap3\n      swap2\n      pop\n      pop\n      jump\t// out\n        /* \"#utility.yul\":2500:2622   */\n    tag_99:\n        /* \"#utility.yul\":2573:2597   */\n      tag_146\n        /* \"#utility.yul\":2591:2596   */\n      dup2\n        /* \"#utility.yul\":2573:2597   */\n      tag_87\n      jump\t// in\n    tag_146:\n        /* \"#utility.yul\":2566:2571   */\n      dup2\n        /* \"#utility.yul\":2563:2598   */\n      eq\n        /* \"#utility.yul\":2553:2616   */\n      tag_147\n      jumpi\n        /* \"#utility.yul\":2612:2613   */\n      0x00\n        /* \"#utility.yul\":2609:2610   */\n      0x00\n        /* \"#utility.yul\":2602:2614   */\n      revert\n        /* \"#utility.yul\":2553:2616   */\n    tag_147:\n        /* \"#utility.yul\":2500:2622   */\n      pop\n      jump\t// out\n        /* \"#utility.yul\":2628:2767   */\n    tag_100:\n        /* \"#utility.yul\":2674:2679   */\n      0x00\n        /* \"#utility.yul\":2712:2718   */\n      dup2\n        /* \"#utility.yul\":2699:2719   */\n      calldataload\n        /* \"#utility.yul\":2690:2719   */\n      swap1\n      pop\n        /* \"#utility.yul\":2728:2761   */\n      tag_149\n        /* \"#utility.yul\":2755:2760   */\n      dup2\n        /* \"#utility.yul\":2728:2761   */\n      tag_99\n      jump\t// in\n    tag_149:\n        /* \"#utility.yul\":2628:2767   */\n      swap3\n      swap2\n      pop\n      pop\n      jump\t// out\n        /* \"#utility.yul\":2773:3247   */\n    tag_40:\n        /* \"#utility.yul\":2841:2847   */\n      0x00\n        /* \"#utility.yul\":2849:2855   */\n      0x00\n        /* \"#utility.yul\":2898:2900   */\n      0x40\n        /* \"#utility.yul\":2886:2895   */\n      dup4\n        /* \"#utility.yul\":2877:2884   */\n      dup6\n        /* \"#utility.yul\":2873:2896   */\n      sub\n        /* \"#utility.yul\":2869:2901   */\n      slt\n        /* \"#utility.yul\":2866:2985   */\n      iszero\n      tag_151\n      jumpi\n        /* \"#utility.yul\":2904:2983   */\n      tag_152\n      tag_90\n      jump\t// in\n    tag_152:\n        /* \"#utility.yul\":2866:2985   */\n    tag_151:\n        /* \"#utility.yul\":3024:3025   */\n      0x00\n        /* \"#utility.yul\":3049:3102   */\n      tag_153\n        /* \"#utility.yul\":3094:3101   */\n      dup6\n        /* \"#utility.yul\":3085:3091   */\n      dup3\n        /* \"#utility.yul\":3074:3083   */\n      dup7\n        /* \"#utility.yul\":3070:3092   */\n      add\n        /* \"#utility.yul\":3049:3102   */\n      tag_100\n      jump\t// in\n    tag_153:\n        /* \"#utility.yul\":3039:3102   */\n      swap3\n      pop\n        /* \"#utility.yul\":2995:3112   */\n      pop\n        /* \"#utility.yul\":3151:3153   */\n      0x20\n        /* \"#utility.yul\":3177:3230   */\n      tag_154\n        /* \"#utility.yul\":3222:3229   */\n      dup6\n        /* \"#utility.yul\":3213:3219   */\n      dup3\n        /* \"#utility.yul\":3202:3211   */\n      dup7\n        /* \"#utility.yul\":3198:3220   */\n      add\n        /* \"#utility.yul\":3177:3230   */\n      tag_100\n      jump\t// in\n    tag_154:\n        /* \"#utility.yul\":3167:3230   */\n      swap2\n      pop\n        /* \"#utility.yul\":3122:3240   */\n      pop\n        /* \"#utility.yul\":2773:3247   */\n      swap3\n      pop\n      swap3\n      swap1\n      pop\n      jump\t// out\n        /* \"#utility.yul\":3253:3582   */\n    tag_45:\n        /* \"#utility.yul\":3312:3318   */\n      0x00\n        /* \"#utility.yul\":3361:3363   */\n      0x20\n        /* \"#utility.yul\":3349:3358   */\n      dup3\n        /* \"#utility.yul\":3340:3347   */\n      dup5\n        /* \"#utility.yul\":3336:3359   */\n      sub\n        /* \"#utility.yul\":3332:3364   */\n      slt\n        /* \"#utility.yul\":3329:3448   */\n      iszero\n      tag_156\n      jumpi\n        /* \"#utility.yul\":3367:3446   */\n      tag_157\n      tag_90\n      jump\t// in\n    tag_157:\n        /* \"#utility.yul\":3329:3448   */\n    tag_156:\n        /* \"#utility.yul\":3487:3488   */\n      0x00\n        /* \"#utility.yul\":3512:3565   */\n      tag_158\n        /* \"#utility.yul\":3557:3564   */\n      dup5\n        /* \"#utility.yul\":3548:3554   */\n      dup3\n        /* \"#utility.yul\":3537:3546   */\n      dup6\n        /* \"#utility.yul\":3533:3555   */\n      add\n        /* \"#utility.yul\":3512:3565   */\n      tag_100\n      jump\t// in\n    tag_158:\n        /* \"#utility.yul\":3502:3565   */\n      swap2\n      pop\n        /* \"#utility.yul\":3458:3575   */\n      pop\n        /* \"#utility.yul\":3253:3582   */\n      swap3\n      swap2\n      pop\n      pop\n      jump\t// out\n        /* \"#utility.yul\":3588:3757   */\n    tag_101:\n        /* \"#utility.yul\":3672:3683   */\n      0x00\n        /* \"#utility.yul\":3706:3712   */\n      dup3\n        /* \"#utility.yul\":3701:3704   */\n      dup3\n        /* \"#utility.yul\":3694:3713   */\n      mstore\n        /* \"#utility.yul\":3746:3750   */\n      0x20\n        /* \"#utility.yul\":3741:3744   */\n      dup3\n        /* \"#utility.yul\":3737:3751   */\n      add\n        /* \"#utility.yul\":3722:3751   */\n      swap1\n      pop\n        /* \"#utility.yul\":3588:3757   */\n      swap3\n      swap2\n      pop\n      pop\n      jump\t// out\n        /* \"#utility.yul\":3763:3936   */\n    tag_102:\n        /* \"#utility.yul\":3903:3928   */\n      0x4f6e6c79206f776e65722063616e207769746864726177000000000000000000\n        /* \"#utility.yul\":3899:3900   */\n      0x00\n        /* \"#utility.yul\":3891:3897   */\n      dup3\n        /* \"#utility.yul\":3887:3901   */\n      add\n        /* \"#utility.yul\":3880:3929   */\n      mstore\n        /* \"#utility.yul\":3763:3936   */\n      pop\n      jump\t// out\n        /* \"#utility.yul\":3942:4308   */\n    tag_103:\n        /* \"#utility.yul\":4084:4087   */\n      0x00\n        /* \"#utility.yul\":4105:4172   */\n      tag_162\n        /* \"#utility.yul\":4169:4171   */\n      0x17\n        /* \"#utility.yul\":4164:4167   */\n      dup4\n        /* \"#utility.yul\":4105:4172   */\n      tag_101\n      jump\t// in\n    tag_162:\n        /* \"#utility.yul\":4098:4172   */\n      swap2\n      pop\n        /* \"#utility.yul\":4181:4274   */\n      tag_163\n        /* \"#utility.yul\":4270:4273   */\n      dup3\n        /* \"#utility.yul\":4181:4274   */\n      tag_102\n      jump\t// in\n    tag_163:\n        /* \"#utility.yul\":4299:4301   */\n      0x20\n        /* \"#utility.yul\":4294:4297   */\n      dup3\n        /* \"#utility.yul\":4290:4302   */\n      add\n        /* \"#utility.yul\":4283:4302   */\n      swap1\n      pop\n        /* \"#utility.yul\":3942:4308   */\n      swap2\n      swap1\n      pop\n      jump\t// out\n        /* \"#utility.yul\":4314:4733   */\n    tag_51:\n        /* \"#utility.yul\":4480:4484   */\n      0x00\n        /* \"#utility.yul\":4518:4520   */\n      0x20\n        /* \"#utility.yul\":4507:4516   */\n      dup3\n        /* \"#utility.yul\":4503:4521   */\n      add\n        /* \"#utility.yul\":4495:4521   */\n      swap1\n      pop\n        /* \"#utility.yul\":4567:4576   */\n      dup2\n        /* \"#utility.yul\":4561:4565   */\n      dup2\n        /* \"#utility.yul\":4557:4577   */\n      sub\n        /* \"#utility.yul\":4553:4554   */\n      0x00\n        /* \"#utility.yul\":4542:4551   */\n      dup4\n        /* \"#utility.yul\":4538:4555   */\n      add\n        /* \"#utility.yul\":4531:4578   */\n      mstore\n        /* \"#utility.yul\":4595:4726   */\n      tag_165\n        /* \"#utility.yul\":4721:4725   */\n      dup2\n        /* \"#utility.yul\":4595:4726   */\n      tag_103\n      jump\t// in\n    tag_165:\n        /* \"#utility.yul\":4587:4726   */\n      swap1\n      pop\n        /* \"#utility.yul\":4314:4733   */\n      swap2\n      swap1\n      pop\n      jump\t// out\n        /* \"#utility.yul\":4739:4919   */\n    tag_104:\n        /* \"#utility.yul\":4879:4911   */\n      0x5061726b696e672073657373696f6e20616c7265616479206163746976650000\n        /* \"#utility.yul\":4875:4876   */\n      0x00\n        /* \"#utility.yul\":4867:4873   */\n      dup3\n        /* \"#utility.yul\":4863:4877   */\n      add\n        /* \"#utility.yul\":4856:4912   */\n      mstore\n        /* \"#utility.yul\":4739:4919   */\n      pop\n      jump\t// out\n        /* \"#utility.yul\":4925:5291   */\n    tag_105:\n        /* \"#utility.yul\":5067:5070   */\n      0x00\n        /* \"#utility.yul\":5088:5155   */\n      tag_168\n        /* \"#utility.yul\":5152:5154   */\n      0x1e\n        /* \"#utility.yul\":5147:5150   */\n      dup4\n        /* \"#utility.yul\":5088:5155   */\n      tag_101\n      jump\t// in\n    tag_168:\n        /* \"#utility.yul\":5081:5155   */\n      swap2\n      pop\n        /* \"#utility.yul\":5164:5257   */\n      tag_169\n        /* \"#utility.yul\":5253:5256   */\n      dup3\n        /* \"#utility.yul\":5164:5257   */\n      tag_104\n      jump\t// in\n    tag_169:\n        /* \"#utility.yul\":5282:5284   */\n      0x20\n        /* \"#utility.yul\":5277:5280   */\n      dup3\n        /* \"#utility.yul\":5273:5285   */\n      add\n        /* \"#utility.yul\":5266:5285   */\n      swap1\n      pop\n        /* \"#utility.yul\":4925:5291   */\n      swap2\n      swap1\n      pop\n      jump\t// out\n        /* \"#utility.yul\":5297:5716   */\n    tag_57:\n        /* \"#utility.yul\":5463:5467   */\n      0x00\n        /* \"#utility.yul\":5501:5503   */\n      0x20\n        /* \"#utility.yul\":5490:5499   */\n      dup3\n        /* \"#utility.yul\":5486:5504   */\n      add\n        /* \"#utility.yul\":5478:5504   */\n      swap1\n      pop\n        /* \"#utility.yul\":5550:5559   */\n      dup2\n        /* \"#utility.yul\":5544:5548   */\n      dup2\n        /* \"#utility.yul\":5540:5560   */\n      sub\n        /* \"#utility.yul\":5536:5537   */\n      0x00\n        /* \"#utility.yul\":5525:5534   */\n      dup4\n        /* \"#utility.yul\":5521:5538   */\n      add\n        /* \"#utility.yul\":5514:5561   */\n      mstore\n        /* \"#utility.yul\":5578:5709   */\n      tag_171\n        /* \"#utility.yul\":5704:5708   */\n      dup2\n        /* \"#utility.yul\":5578:5709   */\n      tag_105\n      jump\t// in\n    tag_171:\n        /* \"#utility.yul\":5570:5709   */\n      swap1\n      pop\n        /* \"#utility.yul\":5297:5716   */\n      swap2\n      swap1\n      pop\n      jump\t// out\n        /* \"#utility.yul\":5722:5897   */\n    tag_106:\n        /* \"#utility.yul\":5862:5889   */\n      0x4e6f20616374697665207061726b696e672073657373696f6e00000000000000\n        /* \"#utility.yul\":5858:5859   */\n      0x00\n        /* \"#utility.yul\":5850:5856   */\n      dup3\n        /* \"#utility.yul\":5846:5860   */\n      add\n        /* \"#utility.yul\":5839:5890   */\n      mstore\n        /* \"#utility.yul\":5722:5897   */\n      pop\n      jump\t// out\n        /* \"#utility.yul\":5903:6269   */\n    tag_107:\n        /* \"#utility.yul\":6045:6048   */\n      0x00\n        /* \"#utility.yul\":6066:6133   */\n      tag_174\n        /* \"#utility.yul\":6130:6132   */\n      0x19\n        /* \"#utility.yul\":6125:6128   */\n      dup4\n        /* \"#utility.yul\":6066:6133   */\n      tag_101\n      jump\t// in\n    tag_174:\n        /* \"#utility.yul\":6059:6133   */\n      swap2\n      pop\n        /* \"#utility.yul\":6142:6235   */\n      tag_175\n        /* \"#utility.yul\":6231:6234   */\n      dup3\n        /* \"#utility.yul\":6142:6235   */\n      tag_106\n      jump\t// in\n    tag_175:\n        /* \"#utility.yul\":6260:6262   */\n      0x20\n        /* \"#utility.yul\":6255:6258   */\n      dup3\n        /* \"#utility.yul\":6251:6263   */\n      add\n        /* \"#utility.yul\":6244:6263   */\n      swap1\n      pop\n        /* \"#utility.yul\":5903:6269   */\n      swap2\n      swap1\n      pop\n      jump\t// out\n        /* \"#utility.yul\":6275:6694   */\n    tag_61:\n        /* \"#utility.yul\":6441:6445   */\n      0x00\n        /* \"#utility.yul\":6479:6481   */\n      0x20\n        /* \"#utility.yul\":6468:6477   */\n      dup3\n        /* \"#utility.yul\":6464:6482   */\n      add\n        /* \"#utility.yul\":6456:6482   */\n      swap1\n      pop\n        /* \"#utility.yul\":6528:6537   */\n      dup2\n        /* \"#utility.yul\":6522:6526   */\n      dup2\n        /* \"#utility.yul\":6518:6538   */\n      sub\n        /* \"#utility.yul\":6514:6515   */\n      0x00\n        /* \"#utility.yul\":6503:6512   */\n      dup4\n        /* \"#utility.yul\":6499:6516   */\n      add\n        /* \"#utility.yul\":6492:6539   */\n      mstore\n        /* \"#utility.yul\":6556:6687   */\n      tag_177\n        /* \"#utility.yul\":6682:6686   */\n      dup2\n        /* \"#utility.yul\":6556:6687   */\n      tag_107\n      jump\t// in\n    tag_177:\n        /* \"#utility.yul\":6548:6687   */\n      swap1\n      pop\n        /* \"#utility.yul\":6275:6694   */\n      swap2\n      swap1\n      pop\n      jump\t// out\n        /* \"#utility.yul\":6700:6880   */\n    tag_108:\n        /* \"#utility.yul\":6748:6825   */\n      0x4e487b7100000000000000000000000000000000000000000000000000000000\n        /* \"#utility.yul\":6745:6746   */\n      0x00\n        /* \"#utility.yul\":6738:6826   */\n      mstore\n        /* \"#utility.yul\":6845:6849   */\n      0x11\n        /* \"#utility.yul\":6842:6843   */\n      0x04\n        /* \"#utility.yul\":6835:6850   */\n      mstore\n        /* \"#utility.yul\":6869:6873   */\n      0x24\n        /* \"#utility.yul\":6866:6867   */\n      0x00\n        /* \"#utility.yul\":6859:6874   */\n      revert\n        /* \"#utility.yul\":6886:7080   */\n    tag_63:\n        /* \"#utility.yul\":6926:6930   */\n      0x00\n        /* \"#utility.yul\":6946:6966   */\n      tag_180\n        /* \"#utility.yul\":6964:6965   */\n      dup3\n        /* \"#utility.yul\":6946:6966   */\n      tag_87\n      jump\t// in\n    tag_180:\n        /* \"#utility.yul\":6941:6966   */\n      swap2\n      pop\n        /* \"#utility.yul\":6980:7000   */\n      tag_181\n        /* \"#utility.yul\":6998:6999   */\n      dup4\n        /* \"#utility.yul\":6980:7000   */\n      tag_87\n      jump\t// in\n    tag_181:\n        /* \"#utility.yul\":6975:7000   */\n      swap3\n      pop\n        /* \"#utility.yul\":7024:7025   */\n      dup3\n        /* \"#utility.yul\":7021:7022   */\n      dup3\n        /* \"#utility.yul\":7017:7026   */\n      sub\n        /* \"#utility.yul\":7009:7026   */\n      swap1\n      pop\n        /* \"#utility.yul\":7048:7049   */\n      dup2\n        /* \"#utility.yul\":7042:7046   */\n      dup2\n        /* \"#utility.yul\":7039:7050   */\n      gt\n        /* \"#utility.yul\":7036:7073   */\n      iszero\n      tag_182\n      jumpi\n        /* \"#utility.yul\":7053:7071   */\n      tag_183\n      tag_108\n      jump\t// in\n    tag_183:\n        /* \"#utility.yul\":7036:7073   */\n    tag_182:\n        /* \"#utility.yul\":6886:7080   */\n      swap3\n      swap2\n      pop\n      pop\n      jump\t// out\n        /* \"#utility.yul\":7086:7266   */\n    tag_109:\n        /* \"#utility.yul\":7134:7211   */\n      0x4e487b7100000000000000000000000000000000000000000000000000000000\n        /* \"#utility.yul\":7131:7132   */\n      0x00\n        /* \"#utility.yul\":7124:7212   */\n      mstore\n        /* \"#utility.yul\":7231:7235   */\n      0x12\n        /* \"#utility.yul\":7228:7229   */\n      0x04\n        /* \"#utility.yul\":7221:7236   */\n      mstore\n        /* \"#utility.yul\":7255:7259   */\n      0x24\n        /* \"#utility.yul\":7252:7253   */\n      0x00\n        /* \"#utility.yul\":7245:7260   */\n      revert\n        /* \"#utility.yul\":7272:7457   */\n    tag_65:\n        /* \"#utility.yul\":7312:7313   */\n      0x00\n        /* \"#utility.yul\":7329:7349   */\n      tag_186\n        /* \"#utility.yul\":7347:7348   */\n      dup3\n        /* \"#utility.yul\":7329:7349   */\n      tag_87\n      jump\t// in\n    tag_186:\n        /* \"#utility.yul\":7324:7349   */\n      swap2\n      pop\n        /* \"#utility.yul\":7363:7383   */\n      tag_187\n        /* \"#utility.yul\":7381:7382   */\n      dup4\n        /* \"#utility.yul\":7363:7383   */\n      tag_87\n      jump\t// in\n    tag_187:\n        /* \"#utility.yul\":7358:7383   */\n      swap3\n      pop\n        /* \"#utility.yul\":7402:7403   */\n      dup3\n        /* \"#utility.yul\":7392:7427   */\n      tag_188\n      jumpi\n        /* \"#utility.yul\":7407:7425   */\n      tag_189\n      tag_109\n      jump\t// in\n    tag_189:\n        /* \"#utility.yul\":7392:7427   */\n    tag_188:\n        /* \"#utility.yul\":7449:7450   */\n      dup3\n        /* \"#utility.yul\":7446:7447   */\n      dup3\n        /* \"#utility.yul\":7442:7451   */\n      div\n        /* \"#utility.yul\":7437:7451   */\n      swap1\n      pop\n        /* \"#utility.yul\":7272:7457   */\n      swap3\n      swap2\n      pop\n      pop\n      jump\t// out\n        /* \"#utility.yul\":7463:7873   */\n    tag_69:\n        /* \"#utility.yul\":7503:7510   */\n      0x00\n        /* \"#utility.yul\":7526:7546   */\n      tag_191\n        /* \"#utility.yul\":7544:7545   */\n      dup3\n        /* \"#utility.yul\":7526:7546   */\n      tag_87\n      jump\t// in\n    tag_191:\n        /* \"#utility.yul\":7521:7546   */\n      swap2\n      pop\n        /* \"#utility.yul\":7560:7580   */\n      tag_192\n        /* \"#utility.yul\":7578:7579   */\n      dup4\n        /* \"#utility.yul\":7560:7580   */\n      tag_87\n      jump\t// in\n    tag_192:\n        /* \"#utility.yul\":7555:7580   */\n      swap3\n      pop\n        /* \"#utility.yul\":7615:7616   */\n      dup3\n        /* \"#utility.yul\":7612:7613   */\n      dup3\n        /* \"#utility.yul\":7608:7617   */\n      mul\n        /* \"#utility.yul\":7637:7667   */\n      tag_193\n        /* \"#utility.yul\":7655:7666   */\n      dup2\n        /* \"#utility.yul\":7637:7667   */\n      tag_87\n      jump\t// in\n    tag_193:\n        /* \"#utility.yul\":7626:7667   */\n      swap2\n      pop\n        /* \"#utility.yul\":7816:7817   */\n      dup3\n        /* \"#utility.yul\":7807:7814   */\n      dup3\n        /* \"#utility.yul\":7803:7818   */\n      div\n        /* \"#utility.yul\":7800:7801   */\n      dup5\n        /* \"#utility.yul\":7797:7819   */\n      eq\n        /* \"#utility.yul\":7777:7778   */\n      dup4\n        /* \"#utility.yul\":7770:7779   */\n      iszero\n        /* \"#utility.yul\":7750:7833   */\n      or\n        /* \"#utility.yul\":7727:7866   */\n      tag_194\n      jumpi\n        /* \"#utility.yul\":7846:7864   */\n      tag_195\n      tag_108\n      jump\t// in\n    tag_195:\n        /* \"#utility.yul\":7727:7866   */\n    tag_194:\n        /* \"#utility.yul\":7511:7873   */\n      pop\n        /* \"#utility.yul\":7463:7873   */\n      swap3\n      swap2\n      pop\n      pop\n      jump\t// out\n        /* \"#utility.yul\":7879:8070   */\n    tag_71:\n        /* \"#utility.yul\":7919:7922   */\n      0x00\n        /* \"#utility.yul\":7938:7958   */\n      tag_197\n        /* \"#utility.yul\":7956:7957   */\n      dup3\n        /* \"#utility.yul\":7938:7958   */\n      tag_87\n      jump\t// in\n    tag_197:\n        /* \"#utility.yul\":7933:7958   */\n      swap2\n      pop\n        /* \"#utility.yul\":7972:7992   */\n      tag_198\n        /* \"#utility.yul\":7990:7991   */\n      dup4\n        /* \"#utility.yul\":7972:7992   */\n      tag_87\n      jump\t// in\n    tag_198:\n        /* \"#utility.yul\":7967:7992   */\n      swap3\n      pop\n        /* \"#utility.yul\":8015:8016   */\n      dup3\n        /* \"#utility.yul\":8012:8013   */\n      dup3\n        /* \"#utility.yul\":8008:8017   */\n      add\n        /* \"#utility.yul\":8001:8017   */\n      swap1\n      pop\n        /* \"#utility.yul\":8036:8039   */\n      dup1\n        /* \"#utility.yul\":8033:8034   */\n      dup3\n        /* \"#utility.yul\":8030:8040   */\n      gt\n        /* \"#utility.yul\":8027:8063   */\n      iszero\n      tag_199\n      jumpi\n        /* \"#utility.yul\":8043:8061   */\n      tag_200\n      tag_108\n      jump\t// in\n    tag_200:\n        /* \"#utility.yul\":8027:8063   */\n    tag_199:\n        /* \"#utility.yul\":7879:8070   */\n      swap3\n      swap2\n      pop\n      pop\n      jump\t// out\n        /* \"#utility.yul\":8076:8246   */\n    tag_110:\n        /* \"#utility.yul\":8216:8238   */\n      0x496e73756666696369656e74207061796d656e74000000000000000000000000\n        /* \"#utility.yul\":8212:8213   */\n      0x00\n        /* \"#utility.yul\":8204:8210   */\n      dup3\n        /* \"#utility.yul\":8200:8214   */\n      add\n        /* \"#utility.yul\":8193:8239   */\n      mstore\n        /* \"#utility.yul\":8076:8246   */\n      pop\n      jump\t// out\n        /* \"#utility.yul\":8252:8618   */\n    tag_111:\n        /* \"#utility.yul\":8394:8397   */\n      0x00\n        /* \"#utility.yul\":8415:8482   */\n      tag_203\n        /* \"#utility.yul\":8479:8481   */\n      0x14\n        /* \"#utility.yul\":8474:8477   */\n      dup4\n        /* \"#utility.yul\":8415:8482   */\n      tag_101\n      jump\t// in\n    tag_203:\n        /* \"#utility.yul\":8408:8482   */\n      swap2\n      pop\n        /* \"#utility.yul\":8491:8584   */\n      tag_204\n        /* \"#utility.yul\":8580:8583   */\n      dup3\n        /* \"#utility.yul\":8491:8584   */\n      tag_110\n      jump\t// in\n    tag_204:\n        /* \"#utility.yul\":8609:8611   */\n      0x20\n        /* \"#utility.yul\":8604:8607   */\n      dup3\n        /* \"#utility.yul\":8600:8612   */\n      add\n        /* \"#utility.yul\":8593:8612   */\n      swap1\n      pop\n        /* \"#utility.yul\":8252:8618   */\n      swap2\n      swap1\n      pop\n      jump\t// out\n        /* \"#utility.yul\":8624:9043   */\n    tag_74:\n        /* \"#utility.yul\":8790:8794   */\n      0x00\n        /* \"#utility.yul\":8828:8830   */\n      0x20\n        /* \"#utility.yul\":8817:8826   */\n      dup3\n        /* \"#utility.yul\":8813:8831   */\n      add\n        /* \"#utility.yul\":8805:8831   */\n      swap1\n      pop\n        /* \"#utility.yul\":8877:8886   */\n      dup2\n        /* \"#utility.yul\":8871:8875   */\n      dup2\n        /* \"#utility.yul\":8867:8887   */\n      sub\n        /* \"#utility.yul\":8863:8864   */\n      0x00\n        /* \"#utility.yul\":8852:8861   */\n      dup4\n        /* \"#utility.yul\":8848:8865   */\n      add\n        /* \"#utility.yul\":8841:8888   */\n      mstore\n        /* \"#utility.yul\":8905:9036   */\n      tag_206\n        /* \"#utility.yul\":9031:9035   */\n      dup2\n        /* \"#utility.yul\":8905:9036   */\n      tag_111\n      jump\t// in\n    tag_206:\n        /* \"#utility.yul\":8897:9036   */\n      swap1\n      pop\n        /* \"#utility.yul\":8624:9043   */\n      swap2\n      swap1\n      pop\n      jump\t// out\n        /* \"#utility.yul\":9049:9381   */\n    tag_78:\n        /* \"#utility.yul\":9170:9174   */\n      0x00\n        /* \"#utility.yul\":9208:9210   */\n      0x40\n        /* \"#utility.yul\":9197:9206   */\n      dup3\n        /* \"#utility.yul\":9193:9211   */\n      add\n        /* \"#utility.yul\":9185:9211   */\n      swap1\n      pop\n        /* \"#utility.yul\":9221:9292   */\n      tag_208\n        /* \"#utility.yul\":9289:9290   */\n      0x00\n        /* \"#utility.yul\":9278:9287   */\n      dup4\n        /* \"#utility.yul\":9274:9291   */\n      add\n        /* \"#utility.yul\":9265:9271   */\n      dup6\n        /* \"#utility.yul\":9221:9292   */\n      tag_88\n      jump\t// in\n    tag_208:\n        /* \"#utility.yul\":9302:9374   */\n      tag_209\n        /* \"#utility.yul\":9370:9372   */\n      0x20\n        /* \"#utility.yul\":9359:9368   */\n      dup4\n        /* \"#utility.yul\":9355:9373   */\n      add\n        /* \"#utility.yul\":9346:9352   */\n      dup5\n        /* \"#utility.yul\":9302:9374   */\n      tag_88\n      jump\t// in\n    tag_209:\n        /* \"#utility.yul\":9049:9381   */\n      swap4\n      swap3\n      pop\n      pop\n      pop\n      jump\t// out\n        /* \"#utility.yul\":9387:9555   */\n    tag_112:\n        /* \"#utility.yul\":9527:9547   */\n      0x4f6e6c79206f776e65722063616e207365740000000000000000000000000000\n        /* \"#utility.yul\":9523:9524   */\n      0x00\n        /* \"#utility.yul\":9515:9521   */\n      dup3\n        /* \"#utility.yul\":9511:9525   */\n      add\n        /* \"#utility.yul\":9504:9548   */\n      mstore\n        /* \"#utility.yul\":9387:9555   */\n      pop\n      jump\t// out\n        /* \"#utility.yul\":9561:9927   */\n    tag_113:\n        /* \"#utility.yul\":9703:9706   */\n      0x00\n        /* \"#utility.yul\":9724:9791   */\n      tag_212\n        /* \"#utility.yul\":9788:9790   */\n      0x12\n        /* \"#utility.yul\":9783:9786   */\n      dup4\n        /* \"#utility.yul\":9724:9791   */\n      tag_101\n      jump\t// in\n    tag_212:\n        /* \"#utility.yul\":9717:9791   */\n      swap2\n      pop\n        /* \"#utility.yul\":9800:9893   */\n      tag_213\n        /* \"#utility.yul\":9889:9892   */\n      dup3\n        /* \"#utility.yul\":9800:9893   */\n      tag_112\n      jump\t// in\n    tag_213:\n        /* \"#utility.yul\":9918:9920   */\n      0x20\n        /* \"#utility.yul\":9913:9916   */\n      dup3\n        /* \"#utility.yul\":9909:9921   */\n      add\n        /* \"#utility.yul\":9902:9921   */\n      swap1\n      pop\n        /* \"#utility.yul\":9561:9927   */\n      swap2\n      swap1\n      pop\n      jump\t// out\n        /* \"#utility.yul\":9933:10352   */\n    tag_86:\n        /* \"#utility.yul\":10099:10103   */\n      0x00\n        /* \"#utility.yul\":10137:10139   */\n      0x20\n        /* \"#utility.yul\":10126:10135   */\n      dup3\n        /* \"#utility.yul\":10122:10140   */\n      add\n        /* \"#utility.yul\":10114:10140   */\n      swap1\n      pop\n        /* \"#utility.yul\":10186:10195   */\n      dup2\n        /* \"#utility.yul\":10180:10184   */\n      dup2\n        /* \"#utility.yul\":10176:10196   */\n      sub\n        /* \"#utility.yul\":10172:10173   */\n      0x00\n        /* \"#utility.yul\":10161:10170   */\n      dup4\n        /* \"#utility.yul\":10157:10174   */\n      add\n        /* \"#utility.yul\":10150:10197   */\n      mstore\n        /* \"#utility.yul\":10214:10345   */\n      tag_215\n        /* \"#utility.yul\":10340:10344   */\n      dup2\n        /* \"#utility.yul\":10214:10345   */\n      tag_113\n      jump\t// in\n    tag_215:\n        /* \"#utility.yul\":10206:10345   */\n      swap1\n      pop\n        /* \"#utility.yul\":9933:10352   */\n      swap2\n      swap1\n      pop\n      jump\t// out\n\n    auxdata: 0xa2646970667358221220f40687b04aefd7466b84732f4c8fea1082c6e3295c6c9e7b9d352e567c7527ed64736f6c634300081e0033\n}\n",
				"bytecode": {
					"linkReferences": {},
					"object": "608060405266038d7ea4c680006001553480156019575f5ffd5b50335f5f6101000a81548173ffffffffffffffffffffffffffffffffffffffff021916908373ffffffffffffffffffffffffffffffffffffffff160217905550610c50806100665f395ff3fe60806040526004361061007a575f3560e01c80637bf2181f1161004d5780637bf2181f146101115780638da5cb5b1461013b57806391e90d9814610165578063f668c03c146101815761007a565b806312065fe01461007e5780633ccfd60b146100a8578063431a1b97146100be5780636d451f5f146100fb575b5f5ffd5b348015610089575f5ffd5b506100926101a9565b60405161009f919061070c565b60405180910390f35b3480156100b3575f5ffd5b506100bc6101b0565b005b3480156100c9575f5ffd5b506100e460048036038101906100df9190610783565b6102a4565b6040516100f29291906107c8565b60405180910390f35b348015610106575f5ffd5b5061010f6102d0565b005b34801561011c575f5ffd5b506101256103de565b604051610132919061070c565b60405180910390f35b348015610146575f5ffd5b5061014f6103e4565b60405161015c91906107fe565b60405180910390f35b61017f600480360381019061017a9190610841565b610408565b005b34801561018c575f5ffd5b506101a760048036038101906101a2919061087f565b61065c565b005b5f47905090565b5f5f9054906101000a900473ffffffffffffffffffffffffffffffffffffffff1673ffffffffffffffffffffffffffffffffffffffff163373ffffffffffffffffffffffffffffffffffffffff161461023e576040517f08c379a000000000000000000000000000000000000000000000000000000000815260040161023590610904565b60405180910390fd5b5f5f9054906101000a900473ffffffffffffffffffffffffffffffffffffffff1673ffffffffffffffffffffffffffffffffffffffff166108fc4790811502906040515f60405180830381858888f193505050501580156102a1573d5f5f3e3d5ffd5b50565b6002602052805f5260405f205f91509050805f015490806001015f9054906101000a900460ff16905082565b60025f3373ffffffffffffffffffffffffffffffffffffffff1673ffffffffffffffffffffffffffffffffffffffff1681526020019081526020015f206001015f9054906101000a900460ff161561035d576040517f08c379a00000000000000000000000000000000000000000000000000000000081526004016103549061096c565b60405180910390fd5b60405180604001604052804281526020016001151581525060025f3373ffffffffffffffffffffffffffffffffffffffff1673ffffffffffffffffffffffffffffffffffffffff1681526020019081526020015f205f820151815f01556020820151816001015f6101000a81548160ff021916908315150217905550905050565b60015481565b5f5f9054906101000a900473ffffffffffffffffffffffffffffffffffffffff1681565b5f60025f3373ffffffffffffffffffffffffffffffffffffffff1673ffffffffffffffffffffffffffffffffffffffff1681526020019081526020015f209050806001015f9054906101000a900460ff16610498576040517f08c379a000000000000000000000000000000000000000000000000000000000815260040161048f906109d4565b60405180910390fd5b5f816001015f6101000a81548160ff0219169083151502179055505f4290505f603c835f0154836104c99190610a1f565b6104d39190610a7f565b90505f5f9050858211156104f05785826104ed9190610a1f565b90505b5f600154826104ff9190610aaf565b90505f818761050e9190610af0565b905080341015610553576040517f08c379a000000000000000000000000000000000000000000000000000000000815260040161054a90610b6d565b60405180910390fd5b3373ffffffffffffffffffffffffffffffffffffffff167f6ef95f06320e7a25a04a175ca677b7052bdd97131872c2192525a629f51be77034604051610599919061070c565b60405180910390a25f8311156105fa573373ffffffffffffffffffffffffffffffffffffffff167f1806cd35982158c85fac1c8c39b4038347da8e2506d6e101273d40fe47f4c91784846040516105f1929190610b8b565b60405180910390a25b80341115610652573373ffffffffffffffffffffffffffffffffffffffff166108fc82346106289190610a1f565b90811502906040515f60405180830381858888f19350505050158015610650573d5f5f3e3d5ffd5b505b5050505050505050565b5f5f9054906101000a900473ffffffffffffffffffffffffffffffffffffffff1673ffffffffffffffffffffffffffffffffffffffff163373ffffffffffffffffffffffffffffffffffffffff16146106ea576040517f08c379a00000000000000000000000000000000000000000000000000000000081526004016106e190610bfc565b60405180910390fd5b8060018190555050565b5f819050919050565b610706816106f4565b82525050565b5f60208201905061071f5f8301846106fd565b92915050565b5f5ffd5b5f73ffffffffffffffffffffffffffffffffffffffff82169050919050565b5f61075282610729565b9050919050565b61076281610748565b811461076c575f5ffd5b50565b5f8135905061077d81610759565b92915050565b5f6020828403121561079857610797610725565b5b5f6107a58482850161076f565b91505092915050565b5f8115159050919050565b6107c2816107ae565b82525050565b5f6040820190506107db5f8301856106fd565b6107e860208301846107b9565b9392505050565b6107f881610748565b82525050565b5f6020820190506108115f8301846107ef565b92915050565b610820816106f4565b811461082a575f5ffd5b50565b5f8135905061083b81610817565b92915050565b5f5f6040838503121561085757610856610725565b5b5f6108648582860161082d565b92505060206108758582860161082d565b9150509250929050565b5f6020828403121561089457610893610725565b5b5f6108a18482850161082d565b91505092915050565b5f82825260208201905092915050565b7f4f6e6c79206f776e65722063616e2077697468647261770000000000000000005f82015250565b5f6108ee6017836108aa565b91506108f9826108ba565b602082019050919050565b5f6020820190508181035f83015261091b816108e2565b9050919050565b7f5061726b696e672073657373696f6e20616c72656164792061637469766500005f82015250565b5f610956601e836108aa565b915061096182610922565b602082019050919050565b5f6020820190508181035f8301526109838161094a565b9050919050565b7f4e6f20616374697665207061726b696e672073657373696f6e000000000000005f82015250565b5f6109be6019836108aa565b91506109c98261098a565b602082019050919050565b5f6020820190508181035f8301526109eb816109b2565b9050919050565b7f4e487b71000000000000000000000000000000000000000000000000000000005f52601160045260245ffd5b5f610a29826106f4565b9150610a34836106f4565b9250828203905081811115610a4c57610a4b6109f2565b5b92915050565b7f4e487b71000000000000000000000000000000000000000000000000000000005f52601260045260245ffd5b5f610a89826106f4565b9150610a94836106f4565b925082610aa457610aa3610a52565b5b828204905092915050565b5f610ab9826106f4565b9150610ac4836106f4565b9250828202610ad2816106f4565b91508282048414831517610ae957610ae86109f2565b5b5092915050565b5f610afa826106f4565b9150610b05836106f4565b9250828201905080821115610b1d57610b1c6109f2565b5b92915050565b7f496e73756666696369656e74207061796d656e740000000000000000000000005f82015250565b5f610b576014836108aa565b9150610b6282610b23565b602082019050919050565b5f6020820190508181035f830152610b8481610b4b565b9050919050565b5f604082019050610b9e5f8301856106fd565b610bab60208301846106fd565b9392505050565b7f4f6e6c79206f776e65722063616e2073657400000000000000000000000000005f82015250565b5f610be66012836108aa565b9150610bf182610bb2565b602082019050919050565b5f6020820190508181035f830152610c1381610bda565b905091905056fea2646970667358221220f40687b04aefd7466b84732f4c8fea1082c6e3295c6c9e7b9d352e567c7527ed64736f6c634300081e0033",
					"opcodes": "PUSH1 0x80 PUSH1 0x40 MSTORE PUSH7 0x38D7EA4C68000 PUSH1 0x1 SSTORE CALLVALUE DUP1 ISZERO PUSH1 0x19 JUMPI PUSH0 PUSH0 REVERT JUMPDEST POP CALLER PUSH0 PUSH0 PUSH2 0x100 EXP DUP2 SLOAD DUP2 PUSH20 0xFFFFFFFFFFFFFFFFFFFFFFFFFFFFFFFFFFFFFFFF MUL NOT AND SWAP1 DUP4 PUSH20 0xFFFFFFFFFFFFFFFFFFFFFFFFFFFFFFFFFFFFFFFF AND MUL OR SWAP1 SSTORE POP PUSH2 0xC50 DUP1 PUSH2 0x66 PUSH0 CODECOPY PUSH0 RETURN INVALID PUSH1 0x80 PUSH1 0x40 MSTORE PUSH1 0x4 CALLDATASIZE LT PUSH2 0x7A JUMPI PUSH0 CALLDATALOAD PUSH1 0xE0 SHR DUP1 PUSH4 0x7BF2181F GT PUSH2 0x4D JUMPI DUP1 PUSH4 0x7BF2181F EQ PUSH2 0x111 JUMPI DUP1 PUSH4 0x8DA5CB5B EQ PUSH2 0x13B JUMPI DUP1 PUSH4 0x91E90D98 EQ PUSH2 0x165 JUMPI DUP1 PUSH4 0xF668C03C EQ PUSH2 0x181 JUMPI PUSH2 0x7A JUMP JUMPDEST DUP1 PUSH4 0x12065FE0 EQ PUSH2 0x7E JUMPI DUP1 PUSH4 0x3CCFD60B EQ PUSH2 0xA8 JUMPI DUP1 PUSH4 0x431A1B97 EQ PUSH2 0xBE JUMPI DUP1 PUSH4 0x6D451F5F EQ PUSH2 0xFB JUMPI JUMPDEST PUSH0 PUSH0 REVERT JUMPDEST CALLVALUE DUP1 ISZERO PUSH2 0x89 JUMPI PUSH0 PUSH0 REVERT JUMPDEST POP PUSH2 0x92 PUSH2 0x1A9 JUMP JUMPDEST PUSH1 0x40 MLOAD PUSH2 0x9F SWAP2 SWAP1 PUSH2 0x70C JUMP JUMPDEST PUSH1 0x40 MLOAD DUP1 SWAP2 SUB SWAP1 RETURN JUMPDEST CALLVALUE DUP1 ISZERO PUSH2 0xB3 JUMPI PUSH0 PUSH0 REVERT JUMPDEST POP PUSH2 0xBC PUSH2 0x1B0 JUMP JUMPDEST STOP JUMPDEST CALLVALUE DUP1 ISZERO PUSH2 0xC9 JUMPI PUSH0 PUSH0 REVERT JUMPDEST POP PUSH2 0xE4 PUSH1 0x4 DUP1 CALLDATASIZE SUB DUP2 ADD SWAP1 PUSH2 0xDF SWAP2 SWAP1 PUSH2 0x783 JUMP JUMPDEST PUSH2 0x2A4 JUMP JUMPDEST PUSH1 0x40 MLOAD PUSH2 0xF2 SWAP3 SWAP2 SWAP1 PUSH2 0x7C8 JUMP JUMPDEST PUSH1 0x40 MLOAD DUP1 SWAP2 SUB SWAP1 RETURN JUMPDEST CALLVALUE DUP1 ISZERO PUSH2 0x106 JUMPI PUSH0 PUSH0 REVERT JUMPDEST POP PUSH2 0x10F PUSH2 0x2D0 JUMP JUMPDEST STOP JUMPDEST CALLVALUE DUP1 ISZERO PUSH2 0x11C JUMPI PUSH0 PUSH0 REVERT JUMPDEST POP PUSH2 0x125 PUSH2 0x3DE JUMP JUMPDEST PUSH1 0x40 MLOAD PUSH2 0x132 SWAP2 SWAP1 PUSH2 0x70C JUMP JUMPDEST PUSH1 0x40 MLOAD DUP1 SWAP2 SUB SWAP1 RETURN JUMPDEST CALLVALUE DUP1 ISZERO PUSH2 0x146 JUMPI PUSH0 PUSH0 REVERT JUMPDEST POP PUSH2 0x14F PUSH2 0x3E4 JUMP JUMPDEST PUSH1 0x40 MLOAD PUSH2 0x15C SWAP2 SWAP1 PUSH2 0x7FE JUMP JUMPDEST PUSH1 0x40 MLOAD DUP1 SWAP2 SUB SWAP1 RETURN JUMPDEST PUSH2 0x17F PUSH1 0x4 DUP1 CALLDATASIZE SUB DUP2 ADD SWAP1 PUSH2 0x17A SWAP2 SWAP1 PUSH2 0x841 JUMP JUMPDEST PUSH2 0x408 JUMP JUMPDEST STOP JUMPDEST CALLVALUE DUP1 ISZERO PUSH2 0x18C JUMPI PUSH0 PUSH0 REVERT JUMPDEST POP PUSH2 0x1A7 PUSH1 0x4 DUP1 CALLDATASIZE SUB DUP2 ADD SWAP1 PUSH2 0x1A2 SWAP2 SWAP1 PUSH2 0x87F JUMP JUMPDEST PUSH2 0x65C JUMP JUMPDEST STOP JUMPDEST PUSH0 SELFBALANCE SWAP1 POP SWAP1 JUMP JUMPDEST PUSH0 PUSH0 SWAP1 SLOAD SWAP1 PUSH2 0x100 EXP SWAP1 DIV PUSH20 0xFFFFFFFFFFFFFFFFFFFFFFFFFFFFFFFFFFFFFFFF AND PUSH20 0xFFFFFFFFFFFFFFFFFFFFFFFFFFFFFFFFFFFFFFFF AND CALLER PUSH20 0xFFFFFFFFFFFFFFFFFFFFFFFFFFFFFFFFFFFFFFFF AND EQ PUSH2 0x23E JUMPI PUSH1 0x40 MLOAD PUSH32 0x8C379A000000000000000000000000000000000000000000000000000000000 DUP2 MSTORE PUSH1 0x4 ADD PUSH2 0x235 SWAP1 PUSH2 0x904 JUMP JUMPDEST PUSH1 0x40 MLOAD DUP1 SWAP2 SUB SWAP1 REVERT JUMPDEST PUSH0 PUSH0 SWAP1 SLOAD SWAP1 PUSH2 0x100 EXP SWAP1 DIV PUSH20 0xFFFFFFFFFFFFFFFFFFFFFFFFFFFFFFFFFFFFFFFF AND PUSH20 0xFFFFFFFFFFFFFFFFFFFFFFFFFFFFFFFFFFFFFFFF AND PUSH2 0x8FC SELFBALANCE SWAP1 DUP2 ISZERO MUL SWAP1 PUSH1 0x40 MLOAD PUSH0 PUSH1 0x40 MLOAD DUP1 DUP4 SUB DUP2 DUP6 DUP9 DUP9 CALL SWAP4 POP POP POP POP ISZERO DUP1 ISZERO PUSH2 0x2A1 JUMPI RETURNDATASIZE PUSH0 PUSH0 RETURNDATACOPY RETURNDATASIZE PUSH0 REVERT JUMPDEST POP JUMP JUMPDEST PUSH1 0x2 PUSH1 0x20 MSTORE DUP1 PUSH0 MSTORE PUSH1 0x40 PUSH0 KECCAK256 PUSH0 SWAP2 POP SWAP1 POP DUP1 PUSH0 ADD SLOAD SWAP1 DUP1 PUSH1 0x1 ADD PUSH0 SWAP1 SLOAD SWAP1 PUSH2 0x100 EXP SWAP1 DIV PUSH1 0xFF AND SWAP1 POP DUP3 JUMP JUMPDEST PUSH1 0x2 PUSH0 CALLER PUSH20 0xFFFFFFFFFFFFFFFFFFFFFFFFFFFFFFFFFFFFFFFF AND PUSH20 0xFFFFFFFFFFFFFFFFFFFFFFFFFFFFFFFFFFFFFFFF AND DUP2 MSTORE PUSH1 0x20 ADD SWAP1 DUP2 MSTORE PUSH1 0x20 ADD PUSH0 KECCAK256 PUSH1 0x1 ADD PUSH0 SWAP1 SLOAD SWAP1 PUSH2 0x100 EXP SWAP1 DIV PUSH1 0xFF AND ISZERO PUSH2 0x35D JUMPI PUSH1 0x40 MLOAD PUSH32 0x8C379A000000000000000000000000000000000000000000000000000000000 DUP2 MSTORE PUSH1 0x4 ADD PUSH2 0x354 SWAP1 PUSH2 0x96C JUMP JUMPDEST PUSH1 0x40 MLOAD DUP1 SWAP2 SUB SWAP1 REVERT JUMPDEST PUSH1 0x40 MLOAD DUP1 PUSH1 0x40 ADD PUSH1 0x40 MSTORE DUP1 TIMESTAMP DUP2 MSTORE PUSH1 0x20 ADD PUSH1 0x1 ISZERO ISZERO DUP2 MSTORE POP PUSH1 0x2 PUSH0 CALLER PUSH20 0xFFFFFFFFFFFFFFFFFFFFFFFFFFFFFFFFFFFFFFFF AND PUSH20 0xFFFFFFFFFFFFFFFFFFFFFFFFFFFFFFFFFFFFFFFF AND DUP2 MSTORE PUSH1 0x20 ADD SWAP1 DUP2 MSTORE PUSH1 0x20 ADD PUSH0 KECCAK256 PUSH0 DUP3 ADD MLOAD DUP2 PUSH0 ADD SSTORE PUSH1 0x20 DUP3 ADD MLOAD DUP2 PUSH1 0x1 ADD PUSH0 PUSH2 0x100 EXP DUP2 SLOAD DUP2 PUSH1 0xFF MUL NOT AND SWAP1 DUP4 ISZERO ISZERO MUL OR SWAP1 SSTORE POP SWAP1 POP POP JUMP JUMPDEST PUSH1 0x1 SLOAD DUP2 JUMP JUMPDEST PUSH0 PUSH0 SWAP1 SLOAD SWAP1 PUSH2 0x100 EXP SWAP1 DIV PUSH20 0xFFFFFFFFFFFFFFFFFFFFFFFFFFFFFFFFFFFFFFFF AND DUP2 JUMP JUMPDEST PUSH0 PUSH1 0x2 PUSH0 CALLER PUSH20 0xFFFFFFFFFFFFFFFFFFFFFFFFFFFFFFFFFFFFFFFF AND PUSH20 0xFFFFFFFFFFFFFFFFFFFFFFFFFFFFFFFFFFFFFFFF AND DUP2 MSTORE PUSH1 0x20 ADD SWAP1 DUP2 MSTORE PUSH1 0x20 ADD PUSH0 KECCAK256 SWAP1 POP DUP1 PUSH1 0x1 ADD PUSH0 SWAP1 SLOAD SWAP1 PUSH2 0x100 EXP SWAP1 DIV PUSH1 0xFF AND PUSH2 0x498 JUMPI PUSH1 0x40 MLOAD PUSH32 0x8C379A000000000000000000000000000000000000000000000000000000000 DUP2 MSTORE PUSH1 0x4 ADD PUSH2 0x48F SWAP1 PUSH2 0x9D4 JUMP JUMPDEST PUSH1 0x40 MLOAD DUP1 SWAP2 SUB SWAP1 REVERT JUMPDEST PUSH0 DUP2 PUSH1 0x1 ADD PUSH0 PUSH2 0x100 EXP DUP2 SLOAD DUP2 PUSH1 0xFF MUL NOT AND SWAP1 DUP4 ISZERO ISZERO MUL OR SWAP1 SSTORE POP PUSH0 TIMESTAMP SWAP1 POP PUSH0 PUSH1 0x3C DUP4 PUSH0 ADD SLOAD DUP4 PUSH2 0x4C9 SWAP2 SWAP1 PUSH2 0xA1F JUMP JUMPDEST PUSH2 0x4D3 SWAP2 SWAP1 PUSH2 0xA7F JUMP JUMPDEST SWAP1 POP PUSH0 PUSH0 SWAP1 POP DUP6 DUP3 GT ISZERO PUSH2 0x4F0 JUMPI DUP6 DUP3 PUSH2 0x4ED SWAP2 SWAP1 PUSH2 0xA1F JUMP JUMPDEST SWAP1 POP JUMPDEST PUSH0 PUSH1 0x1 SLOAD DUP3 PUSH2 0x4FF SWAP2 SWAP1 PUSH2 0xAAF JUMP JUMPDEST SWAP1 POP PUSH0 DUP2 DUP8 PUSH2 0x50E SWAP2 SWAP1 PUSH2 0xAF0 JUMP JUMPDEST SWAP1 POP DUP1 CALLVALUE LT ISZERO PUSH2 0x553 JUMPI PUSH1 0x40 MLOAD PUSH32 0x8C379A000000000000000000000000000000000000000000000000000000000 DUP2 MSTORE PUSH1 0x4 ADD PUSH2 0x54A SWAP1 PUSH2 0xB6D JUMP JUMPDEST PUSH1 0x40 MLOAD DUP1 SWAP2 SUB SWAP1 REVERT JUMPDEST CALLER PUSH20 0xFFFFFFFFFFFFFFFFFFFFFFFFFFFFFFFFFFFFFFFF AND PUSH32 0x6EF95F06320E7A25A04A175CA677B7052BDD97131872C2192525A629F51BE770 CALLVALUE PUSH1 0x40 MLOAD PUSH2 0x599 SWAP2 SWAP1 PUSH2 0x70C JUMP JUMPDEST PUSH1 0x40 MLOAD DUP1 SWAP2 SUB SWAP1 LOG2 PUSH0 DUP4 GT ISZERO PUSH2 0x5FA JUMPI CALLER PUSH20 0xFFFFFFFFFFFFFFFFFFFFFFFFFFFFFFFFFFFFFFFF AND PUSH32 0x1806CD35982158C85FAC1C8C39B4038347DA8E2506D6E101273D40FE47F4C917 DUP5 DUP5 PUSH1 0x40 MLOAD PUSH2 0x5F1 SWAP3 SWAP2 SWAP1 PUSH2 0xB8B JUMP JUMPDEST PUSH1 0x40 MLOAD DUP1 SWAP2 SUB SWAP1 LOG2 JUMPDEST DUP1 CALLVALUE GT ISZERO PUSH2 0x652 JUMPI CALLER PUSH20 0xFFFFFFFFFFFFFFFFFFFFFFFFFFFFFFFFFFFFFFFF AND PUSH2 0x8FC DUP3 CALLVALUE PUSH2 0x628 SWAP2 SWAP1 PUSH2 0xA1F JUMP JUMPDEST SWAP1 DUP2 ISZERO MUL SWAP1 PUSH1 0x40 MLOAD PUSH0 PUSH1 0x40 MLOAD DUP1 DUP4 SUB DUP2 DUP6 DUP9 DUP9 CALL SWAP4 POP POP POP POP ISZERO DUP1 ISZERO PUSH2 0x650 JUMPI RETURNDATASIZE PUSH0 PUSH0 RETURNDATACOPY RETURNDATASIZE PUSH0 REVERT JUMPDEST POP JUMPDEST POP POP POP POP POP POP POP POP JUMP JUMPDEST PUSH0 PUSH0 SWAP1 SLOAD SWAP1 PUSH2 0x100 EXP SWAP1 DIV PUSH20 0xFFFFFFFFFFFFFFFFFFFFFFFFFFFFFFFFFFFFFFFF AND PUSH20 0xFFFFFFFFFFFFFFFFFFFFFFFFFFFFFFFFFFFFFFFF AND CALLER PUSH20 0xFFFFFFFFFFFFFFFFFFFFFFFFFFFFFFFFFFFFFFFF AND EQ PUSH2 0x6EA JUMPI PUSH1 0x40 MLOAD PUSH32 0x8C379A000000000000000000000000000000000000000000000000000000000 DUP2 MSTORE PUSH1 0x4 ADD PUSH2 0x6E1 SWAP1 PUSH2 0xBFC JUMP JUMPDEST PUSH1 0x40 MLOAD DUP1 SWAP2 SUB SWAP1 REVERT JUMPDEST DUP1 PUSH1 0x1 DUP2 SWAP1 SSTORE POP POP JUMP JUMPDEST PUSH0 DUP2 SWAP1 POP SWAP2 SWAP1 POP JUMP JUMPDEST PUSH2 0x706 DUP2 PUSH2 0x6F4 JUMP JUMPDEST DUP3 MSTORE POP POP JUMP JUMPDEST PUSH0 PUSH1 0x20 DUP3 ADD SWAP1 POP PUSH2 0x71F PUSH0 DUP4 ADD DUP5 PUSH2 0x6FD JUMP JUMPDEST SWAP3 SWAP2 POP POP JUMP JUMPDEST PUSH0 PUSH0 REVERT JUMPDEST PUSH0 PUSH20 0xFFFFFFFFFFFFFFFFFFFFFFFFFFFFFFFFFFFFFFFF DUP3 AND SWAP1 POP SWAP2 SWAP1 POP JUMP JUMPDEST PUSH0 PUSH2 0x752 DUP3 PUSH2 0x729 JUMP JUMPDEST SWAP1 POP SWAP2 SWAP1 POP JUMP JUMPDEST PUSH2 0x762 DUP2 PUSH2 0x748 JUMP JUMPDEST DUP2 EQ PUSH2 0x76C JUMPI PUSH0 PUSH0 REVERT JUMPDEST POP JUMP JUMPDEST PUSH0 DUP2 CALLDATALOAD SWAP1 POP PUSH2 0x77D DUP2 PUSH2 0x759 JUMP JUMPDEST SWAP3 SWAP2 POP POP JUMP JUMPDEST PUSH0 PUSH1 0x20 DUP3 DUP5 SUB SLT ISZERO PUSH2 0x798 JUMPI PUSH2 0x797 PUSH2 0x725 JUMP JUMPDEST JUMPDEST PUSH0 PUSH2 0x7A5 DUP5 DUP3 DUP6 ADD PUSH2 0x76F JUMP JUMPDEST SWAP2 POP POP SWAP3 SWAP2 POP POP JUMP JUMPDEST PUSH0 DUP2 ISZERO ISZERO SWAP1 POP SWAP2 SWAP1 POP JUMP JUMPDEST PUSH2 0x7C2 DUP2 PUSH2 0x7AE JUMP JUMPDEST DUP3 MSTORE POP POP JUMP JUMPDEST PUSH0 PUSH1 0x40 DUP3 ADD SWAP1 POP PUSH2 0x7DB PUSH0 DUP4 ADD DUP6 PUSH2 0x6FD JUMP JUMPDEST PUSH2 0x7E8 PUSH1 0x20 DUP4 ADD DUP5 PUSH2 0x7B9 JUMP JUMPDEST SWAP4 SWAP3 POP POP POP JUMP JUMPDEST PUSH2 0x7F8 DUP2 PUSH2 0x748 JUMP JUMPDEST DUP3 MSTORE POP POP JUMP JUMPDEST PUSH0 PUSH1 0x20 DUP3 ADD SWAP1 POP PUSH2 0x811 PUSH0 DUP4 ADD DUP5 PUSH2 0x7EF JUMP JUMPDEST SWAP3 SWAP2 POP POP JUMP JUMPDEST PUSH2 0x820 DUP2 PUSH2 0x6F4 JUMP JUMPDEST DUP2 EQ PUSH2 0x82A JUMPI PUSH0 PUSH0 REVERT JUMPDEST POP JUMP JUMPDEST PUSH0 DUP2 CALLDATALOAD SWAP1 POP PUSH2 0x83B DUP2 PUSH2 0x817 JUMP JUMPDEST SWAP3 SWAP2 POP POP JUMP JUMPDEST PUSH0 PUSH0 PUSH1 0x40 DUP4 DUP6 SUB SLT ISZERO PUSH2 0x857 JUMPI PUSH2 0x856 PUSH2 0x725 JUMP JUMPDEST JUMPDEST PUSH0 PUSH2 0x864 DUP6 DUP3 DUP7 ADD PUSH2 0x82D JUMP JUMPDEST SWAP3 POP POP PUSH1 0x20 PUSH2 0x875 DUP6 DUP3 DUP7 ADD PUSH2 0x82D JUMP JUMPDEST SWAP2 POP POP SWAP3 POP SWAP3 SWAP1 POP JUMP JUMPDEST PUSH0 PUSH1 0x20 DUP3 DUP5 SUB SLT ISZERO PUSH2 0x894 JUMPI PUSH2 0x893 PUSH2 0x725 JUMP JUMPDEST JUMPDEST PUSH0 PUSH2 0x8A1 DUP5 DUP3 DUP6 ADD PUSH2 0x82D JUMP JUMPDEST SWAP2 POP POP SWAP3 SWAP2 POP POP JUMP JUMPDEST PUSH0 DUP3 DUP3 MSTORE PUSH1 0x20 DUP3 ADD SWAP1 POP SWAP3 SWAP2 POP POP JUMP JUMPDEST PUSH32 0x4F6E6C79206F776E65722063616E207769746864726177000000000000000000 PUSH0 DUP3 ADD MSTORE POP JUMP JUMPDEST PUSH0 PUSH2 0x8EE PUSH1 0x17 DUP4 PUSH2 0x8AA JUMP JUMPDEST SWAP2 POP PUSH2 0x8F9 DUP3 PUSH2 0x8BA JUMP JUMPDEST PUSH1 0x20 DUP3 ADD SWAP1 POP SWAP2 SWAP1 POP JUMP JUMPDEST PUSH0 PUSH1 0x20 DUP3 ADD SWAP1 POP DUP2 DUP2 SUB PUSH0 DUP4 ADD MSTORE PUSH2 0x91B DUP2 PUSH2 0x8E2 JUMP JUMPDEST SWAP1 POP SWAP2 SWAP1 POP JUMP JUMPDEST PUSH32 0x5061726B696E672073657373696F6E20616C7265616479206163746976650000 PUSH0 DUP3 ADD MSTORE POP JUMP JUMPDEST PUSH0 PUSH2 0x956 PUSH1 0x1E DUP4 PUSH2 0x8AA JUMP JUMPDEST SWAP2 POP PUSH2 0x961 DUP3 PUSH2 0x922 JUMP JUMPDEST PUSH1 0x20 DUP3 ADD SWAP1 POP SWAP2 SWAP1 POP JUMP JUMPDEST PUSH0 PUSH1 0x20 DUP3 ADD SWAP1 POP DUP2 DUP2 SUB PUSH0 DUP4 ADD MSTORE PUSH2 0x983 DUP2 PUSH2 0x94A JUMP JUMPDEST SWAP1 POP SWAP2 SWAP1 POP JUMP JUMPDEST PUSH32 0x4E6F20616374697665207061726B696E672073657373696F6E00000000000000 PUSH0 DUP3 ADD MSTORE POP JUMP JUMPDEST PUSH0 PUSH2 0x9BE PUSH1 0x19 DUP4 PUSH2 0x8AA JUMP JUMPDEST SWAP2 POP PUSH2 0x9C9 DUP3 PUSH2 0x98A JUMP JUMPDEST PUSH1 0x20 DUP3 ADD SWAP1 POP SWAP2 SWAP1 POP JUMP JUMPDEST PUSH0 PUSH1 0x20 DUP3 ADD SWAP1 POP DUP2 DUP2 SUB PUSH0 DUP4 ADD MSTORE PUSH2 0x9EB DUP2 PUSH2 0x9B2 JUMP JUMPDEST SWAP1 POP SWAP2 SWAP1 POP JUMP JUMPDEST PUSH32 0x4E487B7100000000000000000000000000000000000000000000000000000000 PUSH0 MSTORE PUSH1 0x11 PUSH1 0x4 MSTORE PUSH1 0x24 PUSH0 REVERT JUMPDEST PUSH0 PUSH2 0xA29 DUP3 PUSH2 0x6F4 JUMP JUMPDEST SWAP2 POP PUSH2 0xA34 DUP4 PUSH2 0x6F4 JUMP JUMPDEST SWAP3 POP DUP3 DUP3 SUB SWAP1 POP DUP2 DUP2 GT ISZERO PUSH2 0xA4C JUMPI PUSH2 0xA4B PUSH2 0x9F2 JUMP JUMPDEST JUMPDEST SWAP3 SWAP2 POP POP JUMP JUMPDEST PUSH32 0x4E487B7100000000000000000000000000000000000000000000000000000000 PUSH0 MSTORE PUSH1 0x12 PUSH1 0x4 MSTORE PUSH1 0x24 PUSH0 REVERT JUMPDEST PUSH0 PUSH2 0xA89 DUP3 PUSH2 0x6F4 JUMP JUMPDEST SWAP2 POP PUSH2 0xA94 DUP4 PUSH2 0x6F4 JUMP JUMPDEST SWAP3 POP DUP3 PUSH2 0xAA4 JUMPI PUSH2 0xAA3 PUSH2 0xA52 JUMP JUMPDEST JUMPDEST DUP3 DUP3 DIV SWAP1 POP SWAP3 SWAP2 POP POP JUMP JUMPDEST PUSH0 PUSH2 0xAB9 DUP3 PUSH2 0x6F4 JUMP JUMPDEST SWAP2 POP PUSH2 0xAC4 DUP4 PUSH2 0x6F4 JUMP JUMPDEST SWAP3 POP DUP3 DUP3 MUL PUSH2 0xAD2 DUP2 PUSH2 0x6F4 JUMP JUMPDEST SWAP2 POP DUP3 DUP3 DIV DUP5 EQ DUP4 ISZERO OR PUSH2 0xAE9 JUMPI PUSH2 0xAE8 PUSH2 0x9F2 JUMP JUMPDEST JUMPDEST POP SWAP3 SWAP2 POP POP JUMP JUMPDEST PUSH0 PUSH2 0xAFA DUP3 PUSH2 0x6F4 JUMP JUMPDEST SWAP2 POP PUSH2 0xB05 DUP4 PUSH2 0x6F4 JUMP JUMPDEST SWAP3 POP DUP3 DUP3 ADD SWAP1 POP DUP1 DUP3 GT ISZERO PUSH2 0xB1D JUMPI PUSH2 0xB1C PUSH2 0x9F2 JUMP JUMPDEST JUMPDEST SWAP3 SWAP2 POP POP JUMP JUMPDEST PUSH32 0x496E73756666696369656E74207061796D656E74000000000000000000000000 PUSH0 DUP3 ADD MSTORE POP JUMP JUMPDEST PUSH0 PUSH2 0xB57 PUSH1 0x14 DUP4 PUSH2 0x8AA JUMP JUMPDEST SWAP2 POP PUSH2 0xB62 DUP3 PUSH2 0xB23 JUMP JUMPDEST PUSH1 0x20 DUP3 ADD SWAP1 POP SWAP2 SWAP1 POP JUMP JUMPDEST PUSH0 PUSH1 0x20 DUP3 ADD SWAP1 POP DUP2 DUP2 SUB PUSH0 DUP4 ADD MSTORE PUSH2 0xB84 DUP2 PUSH2 0xB4B JUMP JUMPDEST SWAP1 POP SWAP2 SWAP1 POP JUMP JUMPDEST PUSH0 PUSH1 0x40 DUP3 ADD SWAP1 POP PUSH2 0xB9E PUSH0 DUP4 ADD DUP6 PUSH2 0x6FD JUMP JUMPDEST PUSH2 0xBAB PUSH1 0x20 DUP4 ADD DUP5 PUSH2 0x6FD JUMP JUMPDEST SWAP4 SWAP3 POP POP POP JUMP JUMPDEST PUSH32 0x4F6E6C79206F776E65722063616E207365740000000000000000000000000000 PUSH0 DUP3 ADD MSTORE POP JUMP JUMPDEST PUSH0 PUSH2 0xBE6 PUSH1 0x12 DUP4 PUSH2 0x8AA JUMP JUMPDEST SWAP2 POP PUSH2 0xBF1 DUP3 PUSH2 0xBB2 JUMP JUMPDEST PUSH1 0x20 DUP3 ADD SWAP1 POP SWAP2 SWAP1 POP JUMP JUMPDEST PUSH0 PUSH1 0x20 DUP3 ADD SWAP1 POP DUP2 DUP2 SUB PUSH0 DUP4 ADD MSTORE PUSH2 0xC13 DUP2 PUSH2 0xBDA JUMP JUMPDEST SWAP1 POP SWAP2 SWAP1 POP JUMP INVALID LOG2 PUSH5 0x6970667358 0x22 SLT KECCAK256 DELEGATECALL MOD DUP8 0xB0 BLOBBASEFEE 0xEF 0xD7 CHAINID PUSH12 0x84732F4C8FEA1082C6E3295C PUSH13 0x9E7B9D352E567C7527ED64736F PUSH13 0x634300081E0033000000000000 "
				},
				"gasEstimates": {
					"creation": {
						"codeDepositCost": "630400",
						"executionCost": "47032",
						"totalCost": "677432"
					},
					"external": {
						"endParkingAndPay(uint256,uint256)": "infinite",
						"getBalance()": "335",
						"owner()": "2529",
						"penaltyPerMinute()": "2425",
						"sessions(address)": "5112",
						"setPenaltyPerMinute(uint256)": "24749",
						"startParking()": "49019",
						"withdraw()": "infinite"
					}
				},
				"methodIdentifiers": {
					"endParkingAndPay(uint256,uint256)": "91e90d98",
					"getBalance()": "12065fe0",
					"owner()": "8da5cb5b",
					"penaltyPerMinute()": "7bf2181f",
					"sessions(address)": "431a1b97",
					"setPenaltyPerMinute(uint256)": "f668c03c",
					"startParking()": "6d451f5f",
					"withdraw()": "3ccfd60b"
				}
			},
			"storageLayout": {
				"storage": [
					{
						"astId": 3,
						"contract": "backend/Smart_Contract/contracts/Payment.sol:PaymentContract",
						"label": "owner",
						"offset": 0,
						"slot": "0",
						"type": "t_address"
					},
					{
						"astId": 6,
						"contract": "backend/Smart_Contract/contracts/Payment.sol:PaymentContract",
						"label": "penaltyPerMinute",
						"offset": 0,
						"slot": "1",
						"type": "t_uint256"
					},
					{
						"astId": 16,
						"contract": "backend/Smart_Contract/contracts/Payment.sol:PaymentContract",
						"label": "sessions",
						"offset": 0,
						"slot": "2",
						"type": "t_mapping(t_address,t_struct(ParkingSession)11_storage)"
					}
				],
				"types": {
					"t_address": {
						"encoding": "inplace",
						"label": "address",
						"numberOfBytes": "20"
					},
					"t_bool": {
						"encoding": "inplace",
						"label": "bool",
						"numberOfBytes": "1"
					},
					"t_mapping(t_address,t_struct(ParkingSession)11_storage)": {
						"encoding": "mapping",
						"key": "t_address",
						"label": "mapping(address => struct PaymentContract.ParkingSession)",
						"numberOfBytes": "32",
						"value": "t_struct(ParkingSession)11_storage"
					},
					"t_struct(ParkingSession)11_storage": {
						"encoding": "inplace",
						"label": "struct PaymentContract.ParkingSession",
						"members": [
							{
								"astId": 8,
								"contract": "backend/Smart_Contract/contracts/Payment.sol:PaymentContract",
								"label": "startTime",
								"offset": 0,
								"slot": "0",
								"type": "t_uint256"
							},
							{
								"astId": 10,
								"contract": "backend/Smart_Contract/contracts/Payment.sol:PaymentContract",
								"label": "isActive",
								"offset": 0,
								"slot": "1",
								"type": "t_bool"
							}
						],
						"numberOfBytes": "64"
					},
					"t_uint256": {
						"encoding": "inplace",
						"label": "uint256",
						"numberOfBytes": "32"
					}
				}
			},
			"userdoc": {
				"kind": "user",
				"methods": {},
				"version": 1
			}
		}
	}
}