{
	"data": {
		"bytecode": {
			"linkReferences": {},
			"object": "608060405266038d7ea4c680006001553480156019575f5ffd5b50335f5f6101000a81548173ffffffffffffffffffffffffffffffffffffffff021916908373ffffffffffffffffffffffffffffffffffffffff160217905550610c50806100665f395ff3fe60806040526004361061007a575f3560e01c80637bf2181f1161004d5780637bf2181f146101115780638da5cb5b1461013b57806391e90d9814610165578063f668c03c146101815761007a565b806312065fe01461007e5780633ccfd60b146100a8578063431a1b97146100be5780636d451f5f146100fb575b5f5ffd5b348015610089575f5ffd5b506100926101a9565b60405161009f919061070c565b60405180910390f35b3480156100b3575f5ffd5b506100bc6101b0565b005b3480156100c9575f5ffd5b506100e460048036038101906100df9190610783565b6102a4565b6040516100f29291906107c8565b60405180910390f35b348015610106575f5ffd5b5061010f6102d0565b005b34801561011c575f5ffd5b506101256103de565b604051610132919061070c565b60405180910390f35b348015610146575f5ffd5b5061014f6103e4565b60405161015c91906107fe565b60405180910390f35b61017f600480360381019061017a9190610841565b610408565b005b34801561018c575f5ffd5b506101a760048036038101906101a2919061087f565b61065c565b005b5f47905090565b5f5f9054906101000a900473ffffffffffffffffffffffffffffffffffffffff1673ffffffffffffffffffffffffffffffffffffffff163373ffffffffffffffffffffffffffffffffffffffff161461023e576040517f08c379a000000000000000000000000000000000000000000000000000000000815260040161023590610904565b60405180910390fd5b5f5f9054906101000a900473ffffffffffffffffffffffffffffffffffffffff1673ffffffffffffffffffffffffffffffffffffffff166108fc4790811502906040515f60405180830381858888f193505050501580156102a1573d5f5f3e3d5ffd5b50565b6002602052805f5260405f205f91509050805f015490806001015f9054906101000a900460ff16905082565b60025f3373ffffffffffffffffffffffffffffffffffffffff1673ffffffffffffffffffffffffffffffffffffffff1681526020019081526020015f206001015f9054906101000a900460ff161561035d576040517f08c379a00000000000000000000000000000000000000000000000000000000081526004016103549061096c565b60405180910390fd5b60405180604001604052804281526020016001151581525060025f3373ffffffffffffffffffffffffffffffffffffffff1673ffffffffffffffffffffffffffffffffffffffff1681526020019081526020015f205f820151815f01556020820151816001015f6101000a81548160ff021916908315150217905550905050565b60015481565b5f5f9054906101000a900473ffffffffffffffffffffffffffffffffffffffff1681565b5f60025f3373ffffffffffffffffffffffffffffffffffffffff1673ffffffffffffffffffffffffffffffffffffffff1681526020019081526020015f209050806001015f9054906101000a900460ff16610498576040517f08c379a000000000000000000000000000000000000000000000000000000000815260040161048f906109d4565b60405180910390fd5b5f816001015f6101000a81548160ff0219169083151502179055505f4290505f603c835f0154836104c99190610a1f565b6104d39190610a7f565b90505f5f9050858211156104f05785826104ed9190610a1f565b90505b5f600154826104ff9190610aaf565b90505f818761050e9190610af0565b905080341015610553576040517f08c379a000000000000000000000000000000000000000000000000000000000815260040161054a90610b6d565b60405180910390fd5b3373ffffffffffffffffffffffffffffffffffffffff167f6ef95f06320e7a25a04a175ca677b7052bdd97131872c2192525a629f51be77034604051610599919061070c565b60405180910390a25f8311156105fa573373ffffffffffffffffffffffffffffffffffffffff167f1806cd35982158c85fac1c8c39b4038347da8e2506d6e101273d40fe47f4c91784846040516105f1929190610b8b565b60405180910390a25b80341115610652573373ffffffffffffffffffffffffffffffffffffffff166108fc82346106289190610a1f565b90811502906040515f60405180830381858888f19350505050158015610650573d5f5f3e3d5ffd5b505b5050505050505050565b5f5f9054906101000a900473ffffffffffffffffffffffffffffffffffffffff1673ffffffffffffffffffffffffffffffffffffffff163373ffffffffffffffffffffffffffffffffffffffff16146106ea576040517f08c379a00000000000000000000000000000000000000000000000000000000081526004016106e190610bfc565b60405180910390fd5b8060018190555050565b5f819050919050565b610706816106f4565b82525050565b5f60208201905061071f5f8301846106fd565b92915050565b5f5ffd5b5f73ffffffffffffffffffffffffffffffffffffffff82169050919050565b5f61075282610729565b9050919050565b61076281610748565b811461076c575f5ffd5b50565b5f8135905061077d81610759565b92915050565b5f6020828403121561079857610797610725565b5b5f6107a58482850161076f565b91505092915050565b5f8115159050919050565b6107c2816107ae565b82525050565b5f6040820190506107db5f8301856106fd565b6107e860208301846107b9565b9392505050565b6107f881610748565b82525050565b5f6020820190506108115f8301846107ef565b92915050565b610820816106f4565b811461082a575f5ffd5b50565b5f8135905061083b81610817565b92915050565b5f5f6040838503121561085757610856610725565b5b5f6108648582860161082d565b92505060206108758582860161082d565b9150509250929050565b5f6020828403121561089457610893610725565b5b5f6108a18482850161082d565b91505092915050565b5f82825260208201905092915050565b7f4f6e6c79206f776e65722063616e2077697468647261770000000000000000005f82015250565b5f6108ee6017836108aa565b91506108f9826108ba565b602082019050919050565b5f6020820190508181035f83015261091b816108e2565b9050919050565b7f5061726b696e672073657373696f6e20616c72656164792061637469766500005f82015250565b5f610956601e836108aa565b915061096182610922565b602082019050919050565b5f6020820190508181035f8301526109838161094a565b9050919050565b7f4e6f20616374697665207061726b696e672073657373696f6e000000000000005f82015250565b5f6109be6019836108aa565b91506109c98261098a565b602082019050919050565b5f6020820190508181035f8301526109eb816109b2565b9050919050565b7f4e487b71000000000000000000000000000000000000000000000000000000005f52601160045260245ffd5b5f610a29826106f4565b9150610a34836106f4565b9250828203905081811115610a4c57610a4b6109f2565b5b92915050565b7f4e487b71000000000000000000000000000000000000000000000000000000005f52601260045260245ffd5b5f610a89826106f4565b9150610a94836106f4565b925082610aa457610aa3610a52565b5b828204905092915050565b5f610ab9826106f4565b9150610ac4836106f4565b9250828202610ad2816106f4565b91508282048414831517610ae957610ae86109f2565b5b5092915050565b5f610afa826106f4565b9150610b05836106f4565b9250828201905080821115610b1d57610b1c6109f2565b5b92915050565b7f496e73756666696369656e74207061796d656e740000000000000000000000005f82015250565b5f610b576014836108aa565b9150610b6282610b23565b602082019050919050565b5f6020820190508181035f830152610b8481610b4b565b9050919050565b5f604082019050610b9e5f8301856106fd565b610bab60208301846106fd565b9392505050565b7f4f6e6c79206f776e65722063616e2073657400000000000000000000000000005f82015250565b5f610be66012836108aa565b9150610bf182610bb2565b602082019050919050565b5f6020820190508181035f830152610c1381610bda565b905091905056fea2646970667358221220f40687b04aefd7466b84732f4c8fea1082c6e3295c6c9e7b9d352e567c7527ed64736f6c634300081e0033",
			"opcodes": "PUSH1 0x80 PUSH1 0x40 MSTORE PUSH7 0x38D7EA4C68000 PUSH1 0x1 SSTORE CALLVALUE DUP1 ISZERO PUSH1 0x19 JUMPI PUSH0 PUSH0 REVERT JUMPDEST POP CALLER PUSH0 PUSH0 PUSH2 0x100 EXP DUP2 SLOAD DUP2 PUSH20 0xFFFFFFFFFFFFFFFFFFFFFFFFFFFFFFFFFFFFFFFF MUL NOT AND SWAP1 DUP4 PUSH20 0xFFFFFFFFFFFFFFFFFFFFFFFFFFFFFFFFFFFFFFFF AND MUL OR SWAP1 SSTORE POP PUSH2 0xC50 DUP1 PUSH2 0x66 PUSH0 CODECOPY PUSH0 RETURN INVALID PUSH1 0x80 PUSH1 0x40 MSTORE PUSH1 0x4 CALLDATASIZE LT PUSH2 0x7A JUMPI PUSH0 CALLDATALOAD PUSH1 0xE0 SHR DUP1 PUSH4 0x7BF2181F GT PUSH2 0x4D JUMPI DUP1 PUSH4 0x7BF2181F EQ PUSH2 0x111 JUMPI DUP1 PUSH4 0x8DA5CB5B EQ PUSH2 0x13B JUMPI DUP1 PUSH4 0x91E90D98 EQ PUSH2 0x165 JUMPI DUP1 PUSH4 0xF668C03C EQ PUSH2 0x181 JUMPI PUSH2 0x7A JUMP JUMPDEST DUP1 PUSH4 0x12065FE0 EQ PUSH2 0x7E JUMPI DUP1 PUSH4 0x3CCFD60B EQ PUSH2 0xA8 JUMPI DUP1 PUSH4 0x431A1B97 EQ PUSH2 0xBE JUMPI DUP1 PUSH4 0x6D451F5F EQ PUSH2 0xFB JUMPI JUMPDEST PUSH0 PUSH0 REVERT JUMPDEST CALLVALUE DUP1 ISZERO PUSH2 0x89 JUMPI PUSH0 PUSH0 REVERT JUMPDEST POP PUSH2 0x92 PUSH2 0x1A9 JUMP JUMPDEST PUSH1 0x40 MLOAD PUSH2 0x9F SWAP2 SWAP1 PUSH2 0x70C JUMP JUMPDEST PUSH1 0x40 MLOAD DUP1 SWAP2 SUB SWAP1 RETURN JUMPDEST CALLVALUE DUP1 ISZERO PUSH2 0xB3 JUMPI PUSH0 PUSH0 REVERT JUMPDEST POP PUSH2 0xBC PUSH2 0x1B0 JUMP JUMPDEST STOP JUMPDEST CALLVALUE DUP1 ISZERO PUSH2 0xC9 JUMPI PUSH0 PUSH0 REVERT JUMPDEST POP PUSH2 0xE4 PUSH1 0x4 DUP1 CALLDATASIZE SUB DUP2 ADD SWAP1 PUSH2 0xDF SWAP2 SWAP1 PUSH2 0x783 JUMP JUMPDEST PUSH2 0x2A4 JUMP JUMPDEST PUSH1 0x40 MLOAD PUSH2 0xF2 SWAP3 SWAP2 SWAP1 PUSH2 0x7C8 JUMP JUMPDEST PUSH1 0x40 MLOAD DUP1 SWAP2 SUB SWAP1 RETURN JUMPDEST CALLVALUE DUP1 ISZERO PUSH2 0x106 JUMPI PUSH0 PUSH0 REVERT JUMPDEST POP PUSH2 0x10F PUSH2 0x2D0 JUMP JUMPDEST STOP JUMPDEST CALLVALUE DUP1 ISZERO PUSH2 0x11C JUMPI PUSH0 PUSH0 REVERT JUMPDEST POP PUSH2 0x125 PUSH2 0x3DE JUMP JUMPDEST PUSH1 0x40 MLOAD PUSH2 0x132 SWAP2 SWAP1 PUSH2 0x70C JUMP JUMPDEST PUSH1 0x40 MLOAD DUP1 SWAP2 SUB SWAP1 RETURN JUMPDEST CALLVALUE DUP1 ISZERO PUSH2 0x146 JUMPI PUSH0 PUSH0 REVERT JUMPDEST POP PUSH2 0x14F PUSH2 0x3E4 JUMP JUMPDEST PUSH1 0x40 MLOAD PUSH2 0x15C SWAP2 SWAP1 PUSH2 0x7FE JUMP JUMPDEST PUSH1 0x40 MLOAD DUP1 SWAP2 SUB SWAP1 RETURN JUMPDEST PUSH2 0x17F PUSH1 0x4 DUP1 CALLDATASIZE SUB DUP2 ADD SWAP1 PUSH2 0x17A SWAP2 SWAP1 PUSH2 0x841 JUMP JUMPDEST PUSH2 0x408 JUMP JUMPDEST STOP JUMPDEST CALLVALUE DUP1 ISZERO PUSH2 0x18C JUMPI PUSH0 PUSH0 REVERT JUMPDEST POP PUSH2 0x1A7 PUSH1 0x4 DUP1 CALLDATASIZE SUB DUP2 ADD SWAP1 PUSH2 0x1A2 SWAP2 SWAP1 PUSH2 0x87F JUMP JUMPDEST PUSH2 0x65C JUMP JUMPDEST STOP JUMPDEST PUSH0 SELFBALANCE SWAP1 POP SWAP1 JUMP JUMPDEST PUSH0 PUSH0 SWAP1 SLOAD SWAP1 PUSH2 0x100 EXP SWAP1 DIV PUSH20 0xFFFFFFFFFFFFFFFFFFFFFFFFFFFFFFFFFFFFFFFF AND PUSH20 0xFFFFFFFFFFFFFFFFFFFFFFFFFFFFFFFFFFFFFFFF AND CALLER PUSH20 0xFFFFFFFFFFFFFFFFFFFFFFFFFFFFFFFFFFFFFFFF AND EQ PUSH2 0x23E JUMPI PUSH1 0x40 MLOAD PUSH32 0x8C379A000000000000000000000000000000000000000000000000000000000 DUP2 MSTORE PUSH1 0x4 ADD PUSH2 0x235 SWAP1 PUSH2 0x904 JUMP JUMPDEST PUSH1 0x40 MLOAD DUP1 SWAP2 SUB SWAP1 REVERT JUMPDEST PUSH0 PUSH0 SWAP1 SLOAD SWAP1 PUSH2 0x100 EXP SWAP1 DIV PUSH20 0xFFFFFFFFFFFFFFFFFFFFFFFFFFFFFFFFFFFFFFFF AND PUSH20 0xFFFFFFFFFFFFFFFFFFFFFFFFFFFFFFFFFFFFFFFF AND PUSH2 0x8FC SELFBALANCE SWAP1 DUP2 ISZERO MUL SWAP1 PUSH1 0x40 MLOAD PUSH0 PUSH1 0x40 MLOAD DUP1 DUP4 SUB DUP2 DUP6 DUP9 DUP9 CALL SWAP4 POP POP POP POP ISZERO DUP1 ISZERO PUSH2 0x2A1 JUMPI RETURNDATASIZE PUSH0 PUSH0 RETURNDATACOPY RETURNDATASIZE PUSH0 REVERT JUMPDEST POP JUMP JUMPDEST PUSH1 0x2 PUSH1 0x20 MSTORE DUP1 PUSH0 MSTORE PUSH1 0x40 PUSH0 KECCAK256 PUSH0 SWAP2 POP SWAP1 POP DUP1 PUSH0 ADD SLOAD SWAP1 DUP1 PUSH1 0x1 ADD PUSH0 SWAP1 SLOAD SWAP1 PUSH2 0x100 EXP SWAP1 DIV PUSH1 0xFF AND SWAP1 POP DUP3 JUMP JUMPDEST PUSH1 0x2 PUSH0 CALLER PUSH20 0xFFFFFFFFFFFFFFFFFFFFFFFFFFFFFFFFFFFFFFFF AND PUSH20 0xFFFFFFFFFFFFFFFFFFFFFFFFFFFFFFFFFFFFFFFF AND DUP2 MSTORE PUSH1 0x20 ADD SWAP1 DUP2 MSTORE PUSH1 0x20 ADD PUSH0 KECCAK256 PUSH1 0x1 ADD PUSH0 SWAP1 SLOAD SWAP1 PUSH2 0x100 EXP SWAP1 DIV PUSH1 0xFF AND ISZERO PUSH2 0x35D JUMPI PUSH1 0x40 MLOAD PUSH32 0x8C379A000000000000000000000000000000000000000000000000000000000 DUP2 MSTORE PUSH1 0x4 ADD PUSH2 0x354 SWAP1 PUSH2 0x96C JUMP JUMPDEST PUSH1 0x40 MLOAD DUP1 SWAP2 SUB SWAP1 REVERT JUMPDEST PUSH1 0x40 MLOAD DUP1 PUSH1 0x40 ADD PUSH1 0x40 MSTORE DUP1 TIMESTAMP DUP2 MSTORE PUSH1 0x20 ADD PUSH1 0x1 ISZERO ISZERO DUP2 MSTORE POP PUSH1 0x2 PUSH0 CALLER PUSH20 0xFFFFFFFFFFFFFFFFFFFFFFFFFFFFFFFFFFFFFFFF AND PUSH20 0xFFFFFFFFFFFFFFFFFFFFFFFFFFFFFFFFFFFFFFFF AND DUP2 MSTORE PUSH1 0x20 ADD SWAP1 DUP2 MSTORE PUSH1 0x20 ADD PUSH0 KECCAK256 PUSH0 DUP3 ADD MLOAD DUP2 PUSH0 ADD SSTORE PUSH1 0x20 DUP3 ADD MLOAD DUP2 PUSH1 0x1 ADD PUSH0 PUSH2 0x100 EXP DUP2 SLOAD DUP2 PUSH1 0xFF MUL NOT AND SWAP1 DUP4 ISZERO ISZERO MUL OR SWAP1 SSTORE POP SWAP1 POP POP JUMP JUMPDEST PUSH1 0x1 SLOAD DUP2 JUMP JUMPDEST PUSH0 PUSH0 SWAP1 SLOAD SWAP1 PUSH2 0x100 EXP SWAP1 DIV PUSH20 0xFFFFFFFFFFFFFFFFFFFFFFFFFFFFFFFFFFFFFFFF AND DUP2 JUMP JUMPDEST PUSH0 PUSH1 0x2 PUSH0 CALLER PUSH20 0xFFFFFFFFFFFFFFFFFFFFFFFFFFFFFFFFFFFFFFFF AND PUSH20 0xFFFFFFFFFFFFFFFFFFFFFFFFFFFFFFFFFFFFFFFF AND DUP2 MSTORE PUSH1 0x20 ADD SWAP1 DUP2 MSTORE PUSH1 0x20 ADD PUSH0 KECCAK256 SWAP1 POP DUP1 PUSH1 0x1 ADD PUSH0 SWAP1 SLOAD SWAP1 PUSH2 0x100 EXP SWAP1 DIV PUSH1 0xFF AND PUSH2 0x498 JUMPI PUSH1 0x40 MLOAD PUSH32 0x8C379A000000000000000000000000000000000000000000000000000000000 DUP2 MSTORE PUSH1 0x4 ADD PUSH2 0x48F SWAP1 PUSH2 0x9D4 JUMP JUMPDEST PUSH1 0x40 MLOAD DUP1 SWAP2 SUB SWAP1 REVERT JUMPDEST PUSH0 DUP2 PUSH1 0x1 ADD PUSH0 PUSH2 0x100 EXP DUP2 SLOAD DUP2 PUSH1 0xFF MUL NOT AND SWAP1 DUP4 ISZERO ISZERO MUL OR SWAP1 SSTORE POP PUSH0 TIMESTAMP SWAP1 POP PUSH0 PUSH1 0x3C DUP4 PUSH0 ADD SLOAD DUP4 PUSH2 0x4C9 SWAP2 SWAP1 PUSH2 0xA1F JUMP JUMPDEST PUSH2 0x4D3 SWAP2 SWAP1 PUSH2 0xA7F JUMP JUMPDEST SWAP1 POP PUSH0 PUSH0 SWAP1 POP DUP6 DUP3 GT ISZERO PUSH2 0x4F0 JUMPI DUP6 DUP3 PUSH2 0x4ED SWAP2 SWAP1 PUSH2 0xA1F JUMP JUMPDEST SWAP1 POP JUMPDEST PUSH0 PUSH1 0x1 SLOAD DUP3 PUSH2 0x4FF SWAP2 SWAP1 PUSH2 0xAAF JUMP JUMPDEST SWAP1 POP PUSH0 DUP2 DUP8 PUSH2 0x50E SWAP2 SWAP1 PUSH2 0xAF0 JUMP JUMPDEST SWAP1 POP DUP1 CALLVALUE LT ISZERO PUSH2 0x553 JUMPI PUSH1 0x40 MLOAD PUSH32 0x8C379A000000000000000000000000000000000000000000000000000000000 DUP2 MSTORE PUSH1 0x4 ADD PUSH2 0x54A SWAP1 PUSH2 0xB6D JUMP JUMPDEST PUSH1 0x40 MLOAD DUP1 SWAP2 SUB SWAP1 REVERT JUMPDEST CALLER PUSH20 0xFFFFFFFFFFFFFFFFFFFFFFFFFFFFFFFFFFFFFFFF AND PUSH32 0x6EF95F06320E7A25A04A175CA677B7052BDD97131872C2192525A629F51BE770 CALLVALUE PUSH1 0x40 MLOAD PUSH2 0x599 SWAP2 SWAP1 PUSH2 0x70C JUMP JUMPDEST PUSH1 0x40 MLOAD DUP1 SWAP2 SUB SWAP1 LOG2 PUSH0 DUP4 GT ISZERO PUSH2 0x5FA JUMPI CALLER PUSH20 0xFFFFFFFFFFFFFFFFFFFFFFFFFFFFFFFFFFFFFFFF AND PUSH32 0x1806CD35982158C85FAC1C8C39B4038347DA8E2506D6E101273D40FE47F4C917 DUP5 DUP5 PUSH1 0x40 MLOAD PUSH2 0x5F1 SWAP3 SWAP2 SWAP1 PUSH2 0xB8B JUMP JUMPDEST PUSH1 0x40 MLOAD DUP1 SWAP2 SUB SWAP1 LOG2 JUMPDEST DUP1 CALLVALUE GT ISZERO PUSH2 0x652 JUMPI CALLER PUSH20 0xFFFFFFFFFFFFFFFFFFFFFFFFFFFFFFFFFFFFFFFF AND PUSH2 0x8FC DUP3 CALLVALUE PUSH2 0x628 SWAP2 SWAP1 PUSH2 0xA1F JUMP JUMPDEST SWAP1 DUP2 ISZERO MUL SWAP1 PUSH1 0x40 MLOAD PUSH0 PUSH1 0x40 MLOAD DUP1 DUP4 SUB DUP2 DUP6 DUP9 DUP9 CALL SWAP4 POP POP POP POP ISZERO DUP1 ISZERO PUSH2 0x650 JUMPI RETURNDATASIZE PUSH0 PUSH0 RETURNDATACOPY RETURNDATASIZE PUSH0 REVERT JUMPDEST POP JUMPDEST POP POP POP POP POP POP POP POP JUMP JUMPDEST PUSH0 PUSH0 SWAP1 SLOAD SWAP1 PUSH2 0x100 EXP SWAP1 DIV PUSH20 0xFFFFFFFFFFFFFFFFFFFFFFFFFFFFFFFFFFFFFFFF AND PUSH20 0xFFFFFFFFFFFFFFFFFFFFFFFFFFFFFFFFFFFFFFFF AND CALLER PUSH20 0xFFFFFFFFFFFFFFFFFFFFFFFFFFFFFFFFFFFFFFFF AND EQ PUSH2 0x6EA JUMPI PUSH1 0x40 MLOAD PUSH32 0x8C379A000000000000000000000000000000000000000000000000000000000 DUP2 MSTORE PUSH1 0x4 ADD PUSH2 0x6E1 SWAP1 PUSH2 0xBFC JUMP JUMPDEST PUSH1 0x40 MLOAD DUP1 SWAP2 SUB SWAP1 REVERT JUMPDEST DUP1 PUSH1 0x1 DUP2 SWAP1 SSTORE POP POP JUMP JUMPDEST PUSH0 DUP2 SWAP1 POP SWAP2 SWAP1 POP JUMP JUMPDEST PUSH2 0x706 DUP2 PUSH2 0x6F4 JUMP JUMPDEST DUP3 MSTORE POP POP JUMP JUMPDEST PUSH0 PUSH1 0x20 DUP3 ADD SWAP1 POP PUSH2 0x71F PUSH0 DUP4 ADD DUP5 PUSH2 0x6FD JUMP JUMPDEST SWAP3 SWAP2 POP POP JUMP JUMPDEST PUSH0 PUSH0 REVERT JUMPDEST PUSH0 PUSH20 0xFFFFFFFFFFFFFFFFFFFFFFFFFFFFFFFFFFFFFFFF DUP3 AND SWAP1 POP SWAP2 SWAP1 POP JUMP JUMPDEST PUSH0 PUSH2 0x752 DUP3 PUSH2 0x729 JUMP JUMPDEST SWAP1 POP SWAP2 SWAP1 POP JUMP JUMPDEST PUSH2 0x762 DUP2 PUSH2 0x748 JUMP JUMPDEST DUP2 EQ PUSH2 0x76C JUMPI PUSH0 PUSH0 REVERT JUMPDEST POP JUMP JUMPDEST PUSH0 DUP2 CALLDATALOAD SWAP1 POP PUSH2 0x77D DUP2 PUSH2 0x759 JUMP JUMPDEST SWAP3 SWAP2 POP POP JUMP JUMPDEST PUSH0 PUSH1 0x20 DUP3 DUP5 SUB SLT ISZERO PUSH2 0x798 JUMPI PUSH2 0x797 PUSH2 0x725 JUMP JUMPDEST JUMPDEST PUSH0 PUSH2 0x7A5 DUP5 DUP3 DUP6 ADD PUSH2 0x76F JUMP JUMPDEST SWAP2 POP POP SWAP3 SWAP2 POP POP JUMP JUMPDEST PUSH0 DUP2 ISZERO ISZERO SWAP1 POP SWAP2 SWAP1 POP JUMP JUMPDEST PUSH2 0x7C2 DUP2 PUSH2 0x7AE JUMP JUMPDEST DUP3 MSTORE POP POP JUMP JUMPDEST PUSH0 PUSH1 0x40 DUP3 ADD SWAP1 POP PUSH2 0x7DB PUSH0 DUP4 ADD DUP6 PUSH2 0x6FD JUMP JUMPDEST PUSH2 0x7E8 PUSH1 0x20 DUP4 ADD DUP5 PUSH2 0x7B9 JUMP JUMPDEST SWAP4 SWAP3 POP POP POP JUMP JUMPDEST PUSH2 0x7F8 DUP2 PUSH2 0x748 JUMP JUMPDEST DUP3 MSTORE POP POP JUMP JUMPDEST PUSH0 PUSH1 0x20 DUP3 ADD SWAP1 POP PUSH2 0x811 PUSH0 DUP4 ADD DUP5 PUSH2 0x7EF JUMP JUMPDEST SWAP3 SWAP2 POP POP JUMP JUMPDEST PUSH2 0x820 DUP2 PUSH2 0x6F4 JUMP JUMPDEST DUP2 EQ PUSH2 0x82A JUMPI PUSH0 PUSH0 REVERT JUMPDEST POP JUMP JUMPDEST PUSH0 DUP2 CALLDATALOAD SWAP1 POP PUSH2 0x83B DUP2 PUSH2 0x817 JUMP JUMPDEST SWAP3 SWAP2 POP POP JUMP JUMPDEST PUSH0 PUSH0 PUSH1 0x40 DUP4 DUP6 SUB SLT ISZERO PUSH2 0x857 JUMPI PUSH2 0x856 PUSH2 0x725 JUMP JUMPDEST JUMPDEST PUSH0 PUSH2 0x864 DUP6 DUP3 DUP7 ADD PUSH2 0x82D JUMP JUMPDEST SWAP3 POP POP PUSH1 0x20 PUSH2 0x875 DUP6 DUP3 DUP7 ADD PUSH2 0x82D JUMP JUMPDEST SWAP2 POP POP SWAP3 POP SWAP3 SWAP1 POP JUMP JUMPDEST PUSH0 PUSH1 0x20 DUP3 DUP5 SUB SLT ISZERO PUSH2 0x894 JUMPI PUSH2 0x893 PUSH2 0x725 JUMP JUMPDEST JUMPDEST PUSH0 PUSH2 0x8A1 DUP5 DUP3 DUP6 ADD PUSH2 0x82D JUMP JUMPDEST SWAP2 POP POP SWAP3 SWAP2 POP POP JUMP JUMPDEST PUSH0 DUP3 DUP3 MSTORE PUSH1 0x20 DUP3 ADD SWAP1 POP SWAP3 SWAP2 POP POP JUMP JUMPDEST PUSH32 0x4F6E6C79206F776E65722063616E207769746864726177000000000000000000 PUSH0 DUP3 ADD MSTORE POP JUMP JUMPDEST PUSH0 PUSH2 0x8EE PUSH1 0x17 DUP4 PUSH2 0x8AA JUMP JUMPDEST SWAP2 POP PUSH2 0x8F9 DUP3 PUSH2 0x8BA JUMP JUMPDEST PUSH1 0x20 DUP3 ADD SWAP1 POP SWAP2 SWAP1 POP JUMP JUMPDEST PUSH0 PUSH1 0x20 DUP3 ADD SWAP1 POP DUP2 DUP2 SUB PUSH0 DUP4 ADD MSTORE PUSH2 0x91B DUP2 PUSH2 0x8E2 JUMP JUMPDEST SWAP1 POP SWAP2 SWAP1 POP JUMP JUMPDEST PUSH32 0x5061726B696E672073657373696F6E20616C7265616479206163746976650000 PUSH0 DUP3 ADD MSTORE POP JUMP JUMPDEST PUSH0 PUSH2 0x956 PUSH1 0x1E DUP4 PUSH2 0x8AA JUMP JUMPDEST SWAP2 POP PUSH2 0x961 DUP3 PUSH2 0x922 JUMP JUMPDEST PUSH1 0x20 DUP3 ADD SWAP1 POP SWAP2 SWAP1 POP JUMP JUMPDEST PUSH0 PUSH1 0x20 DUP3 ADD SWAP1 POP DUP2 DUP2 SUB PUSH0 DUP4 ADD MSTORE PUSH2 0x983 DUP2 PUSH2 0x94A JUMP JUMPDEST SWAP1 POP SWAP2 SWAP1 POP JUMP JUMPDEST PUSH32 0x4E6F20616374697665207061726B696E672073657373696F6E00000000000000 PUSH0 DUP3 ADD MSTORE POP JUMP JUMPDEST PUSH0 PUSH2 0x9BE PUSH1 0x19 DUP4 PUSH2 0x8AA JUMP JUMPDEST SWAP2 POP PUSH2 0x9C9 DUP3 PUSH2 0x98A JUMP JUMPDEST PUSH1 0x20 DUP3 ADD SWAP1 POP SWAP2 SWAP1 POP JUMP JUMPDEST PUSH0 PUSH1 0x20 DUP3 ADD SWAP1 POP DUP2 DUP2 SUB PUSH0 DUP4 ADD MSTORE PUSH2 0x9EB DUP2 PUSH2 0x9B2 JUMP JUMPDEST SWAP1 POP SWAP2 SWAP1 POP JUMP JUMPDEST PUSH32 0x4E487B7100000000000000000000000000000000000000000000000000000000 PUSH0 MSTORE PUSH1 0x11 PUSH1 0x4 MSTORE PUSH1 0x24 PUSH0 REVERT JUMPDEST PUSH0 PUSH2 0xA29 DUP3 PUSH2 0x6F4 JUMP JUMPDEST SWAP2 POP PUSH2 0xA34 DUP4 PUSH2 0x6F4 JUMP JUMPDEST SWAP3 POP DUP3 DUP3 SUB SWAP1 POP DUP2 DUP2 GT ISZERO PUSH2 0xA4C JUMPI PUSH2 0xA4B PUSH2 0x9F2 JUMP JUMPDEST JUMPDEST SWAP3 SWAP2 POP POP JUMP JUMPDEST PUSH32 0x4E487B7100000000000000000000000000000000000000000000000000000000 PUSH0 MSTORE PUSH1 0x12 PUSH1 0x4 MSTORE PUSH1 0x24 PUSH0 REVERT JUMPDEST PUSH0 PUSH2 0xA89 DUP3 PUSH2 0x6F4 JUMP JUMPDEST SWAP2 POP PUSH2 0xA94 DUP4 PUSH2 0x6F4 JUMP JUMPDEST SWAP3 POP DUP3 PUSH2 0xAA4 JUMPI PUSH2 0xAA3 PUSH2 0xA52 JUMP JUMPDEST JUMPDEST DUP3 DUP3 DIV SWAP1 POP SWAP3 SWAP2 POP POP JUMP JUMPDEST PUSH0 PUSH2 0xAB9 DUP3 PUSH2 0x6F4 JUMP JUMPDEST SWAP2 POP PUSH2 0xAC4 DUP4 PUSH2 0x6F4 JUMP JUMPDEST SWAP3 POP DUP3 DUP3 MUL PUSH2 0xAD2 DUP2 PUSH2 0x6F4 JUMP JUMPDEST SWAP2 POP DUP3 DUP3 DIV DUP5 EQ DUP4 ISZERO OR PUSH2 0xAE9 JUMPI PUSH2 0xAE8 PUSH2 0x9F2 JUMP JUMPDEST JUMPDEST POP SWAP3 SWAP2 POP POP JUMP JUMPDEST PUSH0 PUSH2 0xAFA DUP3 PUSH2 0x6F4 JUMP JUMPDEST SWAP2 POP PUSH2 0xB05 DUP4 PUSH2 0x6F4 JUMP JUMPDEST SWAP3 POP DUP3 DUP3 ADD SWAP1 POP DUP1 DUP3 GT ISZERO PUSH2 0xB1D JUMPI PUSH2 0xB1C PUSH2 0x9F2 JUMP JUMPDEST JUMPDEST SWAP3 SWAP2 POP POP JUMP JUMPDEST PUSH32 0x496E73756666696369656E74207061796D656E74000000000000000000000000 PUSH0 DUP3 ADD MSTORE POP JUMP JUMPDEST PUSH0 PUSH2 0xB57 PUSH1 0x14 DUP4 PUSH2 0x8AA JUMP JUMPDEST SWAP2 POP PUSH2 0xB62 DUP3 PUSH2 0xB23 JUMP JUMPDEST PUSH1 0x20 DUP3 ADD SWAP1 POP SWAP2 SWAP1 POP JUMP JUMPDEST PUSH0 PUSH1 0x20 DUP3 ADD SWAP1 POP DUP2 DUP2 SUB PUSH0 DUP4 ADD MSTORE PUSH2 0xB84 DUP2 PUSH2 0xB4B JUMP JUMPDEST SWAP1 POP SWAP2 SWAP1 POP JUMP JUMPDEST PUSH0 PUSH1 0x40 DUP3 ADD SWAP1 POP PUSH2 0xB9E PUSH0 DUP4 ADD DUP6 PUSH2 0x6FD JUMP JUMPDEST PUSH2 0xBAB PUSH1 0x20 DUP4 ADD DUP5 PUSH2 0x6FD JUMP JUMPDEST SWAP4 SWAP3 POP POP POP JUMP JUMPDEST PUSH32 0x4F6E6C79206F776E65722063616E207365740000000000000000000000000000 PUSH0 DUP3 ADD MSTORE POP JUMP JUMPDEST PUSH0 PUSH2 0xBE6 PUSH1 0x12 DUP4 PUSH2 0x8AA JUMP JUMPDEST SWAP2 POP PUSH2 0xBF1 DUP3 PUSH2 0xBB2 JUMP JUMPDEST PUSH1 0x20 DUP3 ADD SWAP1 POP SWAP2 SWAP1 POP JUMP JUMPDEST PUSH0 PUSH1 0x20 DUP3 ADD SWAP1 POP DUP2 DUP2 SUB PUSH0 DUP4 ADD MSTORE PUSH2 0xC13 DUP2 PUSH2 0xBDA JUMP JUMPDEST SWAP1 POP SWAP2 SWAP1 POP JUMP INVALID LOG2 PUSH5 0x6970667358 0x22 SLT KECCAK256 DELEGATECALL MOD DUP8 0xB0 BLOBBASEFEE 0xEF 0xD7 CHAINID PUSH12 0x84732F4C8FEA1082C6E3295C PUSH13 0x9E7B9D352E567C7527ED64736F PUSH13 0x634300081E0033000000000000 "
		},
		"gasEstimates": {
			"creation": {
				"codeDepositCost": "630400",
				"executionCost": "47032",
				"totalCost": "677432"
			},
			"external": {
				"endParkingAndPay(uint256,uint256)": "infinite",
				"getBalance()": "335",
				"owner()": "2529",
				"penaltyPerMinute()": "2425",
				"sessions(address)": "5112",
				"setPenaltyPerMinute(uint256)": "24749",
				"startParking()": "49019",
				"withdraw()": "infinite"
			}
		},
		"methodIdentifiers": {
			"endParkingAndPay(uint256,uint256)": "91e90d98",
			"getBalance()": "12065fe0",
			"owner()": "8da5cb5b",
			"penaltyPerMinute()": "7bf2181f",
			"sessions(address)": "431a1b97",
			"setPenaltyPerMinute(uint256)": "f668c03c",
			"startParking()": "6d451f5f",
			"withdraw()": "3ccfd60b"
		}
	},
	"abi": [
		{
			"inputs": [],
			"stateMutability": "nonpayable",
			"type": "constructor"
		},
		{
			"anonymous": false,
			"inputs": [
				{
					"indexed": true,
					"internalType": "address",
					"name": "from",
					"type": "address"
				},
				{
					"indexed": false,
					"internalType": "uint256",
					"name": "amount",
					"type": "uint256"
				}
			],
			"name": "PaymentReceived",
			"type": "event"
		},
		{
			"anonymous": false,
			"inputs": [
				{
					"indexed": true,
					"internalType": "address",
					"name": "user",
					"type": "address"
				},
				{
					"indexed": false,
					"internalType": "uint256",
					"name": "overtimeMinutes",
					"type": "uint256"
				},
				{
					"indexed": false,
					"internalType": "uint256",
					"name": "penaltyAmount",
					"type": "uint256"
				}
			],
			"name": "PenaltyCalculated",
			"type": "event"
		},
		{
			"inputs": [
				{
					"internalType": "uint256",
					"name": "allowedMinutes",
					"type": "uint256"
				},
				{
					"internalType": "uint256",
					"name": "baseFee",
					"type": "uint256"
				}
			],
			"name": "endParkingAndPay",
			"outputs": [],
			"stateMutability": "payable",
			"type": "function"
		},
		{
			"inputs": [],
			"name": "getBalance",
			"outputs": [
				{
					"internalType": "uint256",
					"name": "",
					"type": "uint256"
				}
			],
			"stateMutability": "view",
			"type": "function"
		},
		{
			"inputs": [],
			"name": "owner",
			"outputs": [
				{
					"internalType": "address",
					"name": "",
					"type": "address"
				}
			],
			"stateMutability": "view",
			"type": "function"
		},
		{
			"inputs": [],
			"name": "penaltyPerMinute",
			"outputs": [
				{
					"internalType": "uint256",
					"name": "",
					"type": "uint256"
				}
			],
			"stateMutability": "view",
			"type": "function"
		},
		{
			"inputs": [
				{
					"internalType": "address",
					"name": "",
					"type": "address"
				}
			],
			"name": "sessions",
			"outputs": [
				{
					"internalType": "uint256",
					"name": "startTime",
					"type": "uint256"
				},
				{
					"internalType": "bool",
					"name": "isActive",
					"type": "bool"
				}
			],
			"stateMutability": "view",
			"type": "function"
		},
		{
			"inputs": [
				{
					"internalType": "uint256",
					"name": "newPenalty",
					"type": "uint256"
				}
			],
			"name": "setPenaltyPerMinute",
			"outputs": [],
			"stateMutability": "nonpayable",
			"type": "function"
		},
		{
			"inputs": [],
			"name": "startParking",
			"outputs": [],
			"stateMutability": "nonpayable",
			"type": "function"
		},
		{
			"inputs": [],
			"name": "withdraw",
			"outputs": [],
			"stateMutability": "nonpayable",
			"type": "function"
		}
	]
}